{
  "contractName": "ERC721Token",
  "abi": [
    {
      "inputs": [
        {
          "internalType": "uint256",
          "name": "cap",
          "type": "uint256"
        }
      ],
      "stateMutability": "nonpayable",
      "type": "constructor"
    },
    {
      "anonymous": false,
      "inputs": [
        {
          "indexed": true,
          "internalType": "address",
          "name": "owner",
          "type": "address"
        },
        {
          "indexed": true,
          "internalType": "address",
          "name": "approved",
          "type": "address"
        },
        {
          "indexed": true,
          "internalType": "uint256",
          "name": "tokenId",
          "type": "uint256"
        }
      ],
      "name": "Approval",
      "type": "event"
    },
    {
      "anonymous": false,
      "inputs": [
        {
          "indexed": true,
          "internalType": "address",
          "name": "owner",
          "type": "address"
        },
        {
          "indexed": true,
          "internalType": "address",
          "name": "operator",
          "type": "address"
        },
        {
          "indexed": false,
          "internalType": "bool",
          "name": "approved",
          "type": "bool"
        }
      ],
      "name": "ApprovalForAll",
      "type": "event"
    },
    {
      "anonymous": false,
      "inputs": [
        {
          "indexed": true,
          "internalType": "address",
          "name": "recipient",
          "type": "address"
        },
        {
          "indexed": false,
          "internalType": "uint256",
          "name": "tokenID",
          "type": "uint256"
        }
      ],
      "name": "Minted",
      "type": "event"
    },
    {
      "anonymous": false,
      "inputs": [
        {
          "indexed": true,
          "internalType": "address",
          "name": "previousOwner",
          "type": "address"
        },
        {
          "indexed": true,
          "internalType": "address",
          "name": "newOwner",
          "type": "address"
        }
      ],
      "name": "OwnershipTransferred",
      "type": "event"
    },
    {
      "anonymous": false,
      "inputs": [
        {
          "indexed": true,
          "internalType": "address",
          "name": "from",
          "type": "address"
        },
        {
          "indexed": true,
          "internalType": "address",
          "name": "to",
          "type": "address"
        },
        {
          "indexed": true,
          "internalType": "uint256",
          "name": "tokenId",
          "type": "uint256"
        }
      ],
      "name": "Transfer",
      "type": "event"
    },
    {
      "inputs": [
        {
          "internalType": "address",
          "name": "to",
          "type": "address"
        },
        {
          "internalType": "uint256",
          "name": "tokenId",
          "type": "uint256"
        }
      ],
      "name": "approve",
      "outputs": [],
      "stateMutability": "nonpayable",
      "type": "function"
    },
    {
      "inputs": [
        {
          "internalType": "address",
          "name": "owner",
          "type": "address"
        }
      ],
      "name": "balanceOf",
      "outputs": [
        {
          "internalType": "uint256",
          "name": "",
          "type": "uint256"
        }
      ],
      "stateMutability": "view",
      "type": "function"
    },
    {
      "inputs": [
        {
          "internalType": "uint256",
          "name": "tokenId",
          "type": "uint256"
        }
      ],
      "name": "getApproved",
      "outputs": [
        {
          "internalType": "address",
          "name": "",
          "type": "address"
        }
      ],
      "stateMutability": "view",
      "type": "function"
    },
    {
      "inputs": [
        {
          "internalType": "address",
          "name": "owner",
          "type": "address"
        },
        {
          "internalType": "address",
          "name": "operator",
          "type": "address"
        }
      ],
      "name": "isApprovedForAll",
      "outputs": [
        {
          "internalType": "bool",
          "name": "",
          "type": "bool"
        }
      ],
      "stateMutability": "view",
      "type": "function"
    },
    {
      "inputs": [],
      "name": "name",
      "outputs": [
        {
          "internalType": "string",
          "name": "",
          "type": "string"
        }
      ],
      "stateMutability": "view",
      "type": "function"
    },
    {
      "inputs": [],
      "name": "owner",
      "outputs": [
        {
          "internalType": "address",
          "name": "",
          "type": "address"
        }
      ],
      "stateMutability": "view",
      "type": "function"
    },
    {
      "inputs": [
        {
          "internalType": "uint256",
          "name": "tokenId",
          "type": "uint256"
        }
      ],
      "name": "ownerOf",
      "outputs": [
        {
          "internalType": "address",
          "name": "",
          "type": "address"
        }
      ],
      "stateMutability": "view",
      "type": "function"
    },
    {
      "inputs": [],
      "name": "renounceOwnership",
      "outputs": [],
      "stateMutability": "nonpayable",
      "type": "function"
    },
    {
      "inputs": [
        {
          "internalType": "address",
          "name": "from",
          "type": "address"
        },
        {
          "internalType": "address",
          "name": "to",
          "type": "address"
        },
        {
          "internalType": "uint256",
          "name": "tokenId",
          "type": "uint256"
        }
      ],
      "name": "safeTransferFrom",
      "outputs": [],
      "stateMutability": "nonpayable",
      "type": "function"
    },
    {
      "inputs": [
        {
          "internalType": "address",
          "name": "from",
          "type": "address"
        },
        {
          "internalType": "address",
          "name": "to",
          "type": "address"
        },
        {
          "internalType": "uint256",
          "name": "tokenId",
          "type": "uint256"
        },
        {
          "internalType": "bytes",
          "name": "_data",
          "type": "bytes"
        }
      ],
      "name": "safeTransferFrom",
      "outputs": [],
      "stateMutability": "nonpayable",
      "type": "function"
    },
    {
      "inputs": [
        {
          "internalType": "address",
          "name": "currentOwner",
          "type": "address"
        },
        {
          "internalType": "address",
          "name": "operator",
          "type": "address"
        },
        {
          "internalType": "bool",
          "name": "approved",
          "type": "bool"
        }
      ],
      "name": "setApprovalForAll",
      "outputs": [],
      "stateMutability": "nonpayable",
      "type": "function"
    },
    {
      "inputs": [],
      "name": "symbol",
      "outputs": [
        {
          "internalType": "string",
          "name": "",
          "type": "string"
        }
      ],
      "stateMutability": "view",
      "type": "function"
    },
    {
      "inputs": [
        {
          "internalType": "uint256",
          "name": "index",
          "type": "uint256"
        }
      ],
      "name": "tokenByIndex",
      "outputs": [
        {
          "internalType": "uint256",
          "name": "",
          "type": "uint256"
        }
      ],
      "stateMutability": "view",
      "type": "function"
    },
    {
      "inputs": [
        {
          "internalType": "address",
          "name": "owner",
          "type": "address"
        },
        {
          "internalType": "uint256",
          "name": "index",
          "type": "uint256"
        }
      ],
      "name": "tokenOfOwnerByIndex",
      "outputs": [
        {
          "internalType": "uint256",
          "name": "",
          "type": "uint256"
        }
      ],
      "stateMutability": "view",
      "type": "function"
    },
    {
      "inputs": [],
      "name": "totalSupply",
      "outputs": [
        {
          "internalType": "uint256",
          "name": "",
          "type": "uint256"
        }
      ],
      "stateMutability": "view",
      "type": "function"
    },
    {
      "inputs": [
        {
          "internalType": "address",
          "name": "from",
          "type": "address"
        },
        {
          "internalType": "address",
          "name": "to",
          "type": "address"
        },
        {
          "internalType": "uint256",
          "name": "tokenId",
          "type": "uint256"
        }
      ],
      "name": "transferFrom",
      "outputs": [],
      "stateMutability": "nonpayable",
      "type": "function"
    },
    {
      "inputs": [
        {
          "internalType": "address",
          "name": "newOwner",
          "type": "address"
        }
      ],
      "name": "transferOwnership",
      "outputs": [],
      "stateMutability": "nonpayable",
      "type": "function"
    },
    {
      "inputs": [
        {
          "internalType": "address",
          "name": "recipient",
          "type": "address"
        },
        {
          "internalType": "string",
          "name": "uri",
          "type": "string"
        },
        {
          "internalType": "uint256",
          "name": "tokenID",
          "type": "uint256"
        }
      ],
      "name": "mintNFT",
      "outputs": [
        {
          "internalType": "uint256",
          "name": "",
          "type": "uint256"
        }
      ],
      "stateMutability": "nonpayable",
      "type": "function"
    },
    {
      "inputs": [
        {
          "internalType": "uint256",
          "name": "plotID",
          "type": "uint256"
        }
      ],
      "name": "exists",
      "outputs": [
        {
          "internalType": "bool",
          "name": "",
          "type": "bool"
        }
      ],
      "stateMutability": "view",
      "type": "function"
    },
    {
      "inputs": [],
      "name": "checkCap",
      "outputs": [
        {
          "internalType": "uint256",
          "name": "",
          "type": "uint256"
        }
      ],
      "stateMutability": "view",
      "type": "function"
    },
    {
      "inputs": [
        {
          "internalType": "uint256",
          "name": "tokenId",
          "type": "uint256"
        }
      ],
      "name": "tokenURI",
      "outputs": [
        {
          "internalType": "string",
          "name": "",
          "type": "string"
        }
      ],
      "stateMutability": "view",
      "type": "function"
    },
    {
      "inputs": [
        {
          "internalType": "bytes4",
          "name": "interfaceId",
          "type": "bytes4"
        }
      ],
      "name": "supportsInterface",
      "outputs": [
        {
          "internalType": "bool",
          "name": "",
          "type": "bool"
        }
      ],
      "stateMutability": "view",
      "type": "function"
    },
    {
      "inputs": [
        {
          "internalType": "address",
          "name": "owner",
          "type": "address"
        }
      ],
      "name": "enumerateTokens",
      "outputs": [
        {
          "internalType": "uint256[]",
          "name": "",
          "type": "uint256[]"
        }
      ],
      "stateMutability": "view",
      "type": "function"
    }
  ],
  "bytecode": "0x60806040523480156200001157600080fd5b50604051620040b2380380620040b28339818101604052810190620000379190620002de565b6040518060400160405280600981526020017f544f4b454e4e414d4500000000000000000000000000000000000000000000008152506040518060400160405280600381526020017f544f4b0000000000000000000000000000000000000000000000000000000000815250620000c3620000b76200014b60201b60201c565b6200015360201b60201c565b8160019080519060200190620000db92919062000217565b508060029080519060200190620000f492919062000217565b505050600081116200013d576040517f08c379a000000000000000000000000000000000000000000000000000000000815260040162000134906200034c565b60405180910390fd5b80600d819055505062000408565b600033905090565b60008060009054906101000a900473ffffffffffffffffffffffffffffffffffffffff169050816000806101000a81548173ffffffffffffffffffffffffffffffffffffffff021916908373ffffffffffffffffffffffffffffffffffffffff1602179055508173ffffffffffffffffffffffffffffffffffffffff168173ffffffffffffffffffffffffffffffffffffffff167f8be0079c531659141344cd1fd0a4f28419497f9722a3daafe3b4186f6b6457e060405160405180910390a35050565b828054620002259062000389565b90600052602060002090601f01602090048101928262000249576000855562000295565b82601f106200026457805160ff191683800117855562000295565b8280016001018555821562000295579182015b828111156200029457825182559160200191906001019062000277565b5b509050620002a49190620002a8565b5090565b5b80821115620002c3576000816000905550600101620002a9565b5090565b600081519050620002d881620003ee565b92915050565b600060208284031215620002f157600080fd5b60006200030184828501620002c7565b91505092915050565b600062000319601c836200036e565b91507f4552433732313a20636170206d757374206265206e6f6e2d7a65726f000000006000830152602082019050919050565b6000602082019050818103600083015262000367816200030a565b9050919050565b600082825260208201905092915050565b6000819050919050565b60006002820490506001821680620003a257607f821691505b60208210811415620003b957620003b8620003bf565b5b50919050565b7f4e487b7100000000000000000000000000000000000000000000000000000000600052602260045260246000fd5b620003f9816200037f565b81146200040557600080fd5b50565b613c9a80620004186000396000f3fe608060405234801561001057600080fd5b506004361061014d5760003560e01c80634f558e79116100c357806395d89b411161007c57806395d89b41146103d6578063b88d4fde146103f4578063c13982ee14610410578063c87b56dd1461042e578063e985e9c51461045e578063f2fde38b1461048e5761014d565b80634f558e79146102ee5780634f6ccce71461031e5780636352211e1461034e57806370a082311461037e578063715018a6146103ae5780638da5cb5b146103b85761014d565b806315cb04361161011557806315cb04361461021c57806318160ddd1461024c57806323b872dd1461026a5780632f745c5914610286578063367605ca146102b657806342842e0e146102d25761014d565b806301ffc9a71461015257806306fdde0314610182578063081812fc146101a057806308598df0146101d0578063095ea7b314610200575b600080fd5b61016c60048036038101906101679190612a50565b6104aa565b60405161017991906134f9565b60405180910390f35b61018a6104bc565b6040516101979190613514565b60405180910390f35b6101ba60048036038101906101b59190612aa2565b61054e565b6040516101c79190613470565b60405180910390f35b6101ea60048036038101906101e591906129ad565b6105d3565b6040516101f791906137f6565b60405180910390f35b61021a60048036038101906102159190612a14565b61077b565b005b6102366004803603810190610231919061282f565b610893565b60405161024391906134d7565b60405180910390f35b61025461091b565b60405161026191906137f6565b60405180910390f35b610284600480360381019061027f91906128e3565b610928565b005b6102a0600480360381019061029b9190612a14565b610988565b6040516102ad91906137f6565b60405180910390f35b6102d060048036038101906102cb9190612894565b610a2d565b005b6102ec60048036038101906102e791906128e3565b610ba7565b005b61030860048036038101906103039190612aa2565b610bc7565b60405161031591906134f9565b60405180910390f35b61033860048036038101906103339190612aa2565b610c55565b60405161034591906137f6565b60405180910390f35b61036860048036038101906103639190612aa2565b610cec565b6040516103759190613470565b60405180910390f35b6103986004803603810190610393919061282f565b610d9e565b6040516103a591906137f6565b60405180910390f35b6103b6610e56565b005b6103c0610ede565b6040516103cd9190613470565b60405180910390f35b6103de610f07565b6040516103eb9190613514565b60405180910390f35b61040e60048036038101906104099190612932565b610f99565b005b610418610ffb565b60405161042591906137f6565b60405180910390f35b61044860048036038101906104439190612aa2565b611081565b6040516104559190613514565b60405180910390f35b61047860048036038101906104739190612858565b611093565b60405161048591906134f9565b60405180910390f35b6104a860048036038101906104a3919061282f565b611127565b005b60006104b58261121f565b9050919050565b6060600180546104cb90613a8f565b80601f01602080910402602001604051908101604052809291908181526020018280546104f790613a8f565b80156105445780601f1061051957610100808354040283529160200191610544565b820191906000526020600020905b81548152906001019060200180831161052757829003601f168201915b5050505050905090565b600061055982611299565b610598576040517f08c379a000000000000000000000000000000000000000000000000000000000815260040161058f90613716565b60405180910390fd5b6005600083815260200190815260200160002060009054906101000a900473ffffffffffffffffffffffffffffffffffffffff169050919050565b60006105dd611305565b73ffffffffffffffffffffffffffffffffffffffff166105fb610ede565b73ffffffffffffffffffffffffffffffffffffffff1614610651576040517f08c379a000000000000000000000000000000000000000000000000000000000815260040161064890613736565b60405180910390fd5b6001151561065e83611299565b151514156106a1576040517f08c379a000000000000000000000000000000000000000000000000000000000815260040161069890613536565b60405180910390fd5b6000821180156106b35750600d548211155b6106f2576040517f08c379a00000000000000000000000000000000000000000000000000000000081526004016106e990613556565b60405180910390fd5b600d546106ff600c61130d565b1115610740576040517f08c379a0000000000000000000000000000000000000000000000000000000008152600401610737906136b6565b60405180910390fd5b61074a600c61131b565b6107548483611331565b61075e828461134f565b6107718461076a610ede565b6001610a2d565b8190509392505050565b600061078682610cec565b90508073ffffffffffffffffffffffffffffffffffffffff168373ffffffffffffffffffffffffffffffffffffffff1614156107f7576040517f08c379a00000000000000000000000000000000000000000000000000000000081526004016107ee90613796565b60405180910390fd5b8073ffffffffffffffffffffffffffffffffffffffff16610816611305565b73ffffffffffffffffffffffffffffffffffffffff16148061084557506108448161083f611305565b611093565b5b610884576040517f08c379a000000000000000000000000000000000000000000000000000000000815260040161087b90613636565b60405180910390fd5b61088e83836113c3565b505050565b60608060006108a184610d9e565b905060005b81811015610910576108b88582610988565b8382815181106108f1577f4e487b7100000000000000000000000000000000000000000000000000000000600052603260045260246000fd5b602002602001018181525050808061090890613ac1565b9150506108a6565b508192505050919050565b6000600a80549050905090565b610939610933611305565b8261147c565b610978576040517f08c379a000000000000000000000000000000000000000000000000000000000815260040161096f906137b6565b60405180910390fd5b61098383838361155a565b505050565b600061099383610d9e565b82106109d4576040517f08c379a00000000000000000000000000000000000000000000000000000000081526004016109cb90613576565b60405180910390fd5b600860008473ffffffffffffffffffffffffffffffffffffffff1673ffffffffffffffffffffffffffffffffffffffff168152602001908152602001600020600083815260200190815260200160002054905092915050565b610a35611305565b73ffffffffffffffffffffffffffffffffffffffff16610a53610ede565b73ffffffffffffffffffffffffffffffffffffffff1614610aa9576040517f08c379a0000000000000000000000000000000000000000000000000000000008152600401610aa090613736565b60405180910390fd5b80600660008573ffffffffffffffffffffffffffffffffffffffff1673ffffffffffffffffffffffffffffffffffffffff16815260200190815260200160002060008473ffffffffffffffffffffffffffffffffffffffff1673ffffffffffffffffffffffffffffffffffffffff16815260200190815260200160002060006101000a81548160ff0219169083151502179055508173ffffffffffffffffffffffffffffffffffffffff168373ffffffffffffffffffffffffffffffffffffffff167f17307eab39ab6107e8899845ad3d59bd9653f200f220920489ca2b5937696c3183604051610b9a91906134f9565b60405180910390a3505050565b610bc283838360405180602001604052806000815250610f99565b505050565b6000610bd1611305565b73ffffffffffffffffffffffffffffffffffffffff16610bef610ede565b73ffffffffffffffffffffffffffffffffffffffff1614610c45576040517f08c379a0000000000000000000000000000000000000000000000000000000008152600401610c3c90613736565b60405180910390fd5b610c4e82611299565b9050919050565b6000610c5f61091b565b8210610ca0576040517f08c379a0000000000000000000000000000000000000000000000000000000008152600401610c97906137d6565b60405180910390fd5b600a8281548110610cda577f4e487b7100000000000000000000000000000000000000000000000000000000600052603260045260246000fd5b90600052602060002001549050919050565b6000806003600084815260200190815260200160002060009054906101000a900473ffffffffffffffffffffffffffffffffffffffff169050600073ffffffffffffffffffffffffffffffffffffffff168173ffffffffffffffffffffffffffffffffffffffff161415610d95576040517f08c379a0000000000000000000000000000000000000000000000000000000008152600401610d8c90613676565b60405180910390fd5b80915050919050565b60008073ffffffffffffffffffffffffffffffffffffffff168273ffffffffffffffffffffffffffffffffffffffff161415610e0f576040517f08c379a0000000000000000000000000000000000000000000000000000000008152600401610e0690613656565b60405180910390fd5b600460008373ffffffffffffffffffffffffffffffffffffffff1673ffffffffffffffffffffffffffffffffffffffff168152602001908152602001600020549050919050565b610e5e611305565b73ffffffffffffffffffffffffffffffffffffffff16610e7c610ede565b73ffffffffffffffffffffffffffffffffffffffff1614610ed2576040517f08c379a0000000000000000000000000000000000000000000000000000000008152600401610ec990613736565b60405180910390fd5b610edc60006117b6565b565b60008060009054906101000a900473ffffffffffffffffffffffffffffffffffffffff16905090565b606060028054610f1690613a8f565b80601f0160208091040260200160405190810160405280929190818152602001828054610f4290613a8f565b8015610f8f5780601f10610f6457610100808354040283529160200191610f8f565b820191906000526020600020905b815481529060010190602001808311610f7257829003601f168201915b5050505050905090565b610faa610fa4611305565b8361147c565b610fe9576040517f08c379a0000000000000000000000000000000000000000000000000000000008152600401610fe0906137b6565b60405180910390fd5b610ff58484848461187a565b50505050565b6000611005611305565b73ffffffffffffffffffffffffffffffffffffffff16611023610ede565b73ffffffffffffffffffffffffffffffffffffffff1614611079576040517f08c379a000000000000000000000000000000000000000000000000000000000815260040161107090613736565b60405180910390fd5b600d54905090565b606061108c826118d6565b9050919050565b6000600660008473ffffffffffffffffffffffffffffffffffffffff1673ffffffffffffffffffffffffffffffffffffffff16815260200190815260200160002060008373ffffffffffffffffffffffffffffffffffffffff1673ffffffffffffffffffffffffffffffffffffffff16815260200190815260200160002060009054906101000a900460ff16905092915050565b61112f611305565b73ffffffffffffffffffffffffffffffffffffffff1661114d610ede565b73ffffffffffffffffffffffffffffffffffffffff16146111a3576040517f08c379a000000000000000000000000000000000000000000000000000000000815260040161119a90613736565b60405180910390fd5b600073ffffffffffffffffffffffffffffffffffffffff168173ffffffffffffffffffffffffffffffffffffffff161415611213576040517f08c379a000000000000000000000000000000000000000000000000000000000815260040161120a906135b6565b60405180910390fd5b61121c816117b6565b50565b60007f780e9d63000000000000000000000000000000000000000000000000000000007bffffffffffffffffffffffffffffffffffffffffffffffffffffffff1916827bffffffffffffffffffffffffffffffffffffffffffffffffffffffff19161480611292575061129182611a28565b5b9050919050565b60008073ffffffffffffffffffffffffffffffffffffffff166003600084815260200190815260200160002060009054906101000a900473ffffffffffffffffffffffffffffffffffffffff1673ffffffffffffffffffffffffffffffffffffffff1614159050919050565b600033905090565b600081600001549050919050565b6001816000016000828254019250508190555050565b61134b828260405180602001604052806000815250611b0a565b5050565b61135882611299565b611397576040517f08c379a000000000000000000000000000000000000000000000000000000000815260040161138e90613696565b60405180910390fd5b806007600084815260200190815260200160002090805190602001906113be929190612653565b505050565b816005600083815260200190815260200160002060006101000a81548173ffffffffffffffffffffffffffffffffffffffff021916908373ffffffffffffffffffffffffffffffffffffffff160217905550808273ffffffffffffffffffffffffffffffffffffffff1661143683610cec565b73ffffffffffffffffffffffffffffffffffffffff167f8c5be1e5ebec7d5bd14f71427d1e84f3dd0314c0f7b2291e5b200ac8c7c3b92560405160405180910390a45050565b600061148782611299565b6114c6576040517f08c379a00000000000000000000000000000000000000000000000000000000081526004016114bd90613616565b60405180910390fd5b60006114d183610cec565b90508073ffffffffffffffffffffffffffffffffffffffff168473ffffffffffffffffffffffffffffffffffffffff16148061154057508373ffffffffffffffffffffffffffffffffffffffff166115288461054e565b73ffffffffffffffffffffffffffffffffffffffff16145b8061155157506115508185611093565b5b91505092915050565b8273ffffffffffffffffffffffffffffffffffffffff1661157a82610cec565b73ffffffffffffffffffffffffffffffffffffffff16146115d0576040517f08c379a00000000000000000000000000000000000000000000000000000000081526004016115c790613756565b60405180910390fd5b600073ffffffffffffffffffffffffffffffffffffffff168273ffffffffffffffffffffffffffffffffffffffff161415611640576040517f08c379a0000000000000000000000000000000000000000000000000000000008152600401611637906135f6565b60405180910390fd5b61164b838383611b65565b6116566000826113c3565b6001600460008573ffffffffffffffffffffffffffffffffffffffff1673ffffffffffffffffffffffffffffffffffffffff16815260200190815260200160002060008282546116a691906139a5565b925050819055506001600460008473ffffffffffffffffffffffffffffffffffffffff1673ffffffffffffffffffffffffffffffffffffffff16815260200190815260200160002060008282546116fd919061391e565b92505081905550816003600083815260200190815260200160002060006101000a81548173ffffffffffffffffffffffffffffffffffffffff021916908373ffffffffffffffffffffffffffffffffffffffff160217905550808273ffffffffffffffffffffffffffffffffffffffff168473ffffffffffffffffffffffffffffffffffffffff167fddf252ad1be2c89b69c2b068fc378daa952ba7f163c4a11628f55a4df523b3ef60405160405180910390a4505050565b60008060009054906101000a900473ffffffffffffffffffffffffffffffffffffffff169050816000806101000a81548173ffffffffffffffffffffffffffffffffffffffff021916908373ffffffffffffffffffffffffffffffffffffffff1602179055508173ffffffffffffffffffffffffffffffffffffffff168173ffffffffffffffffffffffffffffffffffffffff167f8be0079c531659141344cd1fd0a4f28419497f9722a3daafe3b4186f6b6457e060405160405180910390a35050565b61188584848461155a565b61189184848484611b75565b6118d0576040517f08c379a00000000000000000000000000000000000000000000000000000000081526004016118c790613596565b60405180910390fd5b50505050565b60606118e182611299565b611920576040517f08c379a0000000000000000000000000000000000000000000000000000000008152600401611917906136f6565b60405180910390fd5b600060076000848152602001908152602001600020805461194090613a8f565b80601f016020809104026020016040519081016040528092919081815260200182805461196c90613a8f565b80156119b95780601f1061198e576101008083540402835291602001916119b9565b820191906000526020600020905b81548152906001019060200180831161199c57829003601f168201915b5050505050905060006119ca611d0c565b90506000815114156119e0578192505050611a23565b600082511115611a155780826040516020016119fd92919061344c565b60405160208183030381529060405292505050611a23565b611a1e84611d23565b925050505b919050565b60007f14f6e962000000000000000000000000000000000000000000000000000000007bffffffffffffffffffffffffffffffffffffffffffffffffffffffff1916827bffffffffffffffffffffffffffffffffffffffffffffffffffffffff19161480611af357507f5b5e139f000000000000000000000000000000000000000000000000000000007bffffffffffffffffffffffffffffffffffffffffffffffffffffffff1916827bffffffffffffffffffffffffffffffffffffffffffffffffffffffff1916145b80611b035750611b0282611dca565b5b9050919050565b611b148383611e34565b611b216000848484611b75565b611b60576040517f08c379a0000000000000000000000000000000000000000000000000000000008152600401611b5790613596565b60405180910390fd5b505050565b611b70838383612002565b505050565b6000611b968473ffffffffffffffffffffffffffffffffffffffff16612116565b15611cff578373ffffffffffffffffffffffffffffffffffffffff1663150b7a02611bbf611305565b8786866040518563ffffffff1660e01b8152600401611be1949392919061348b565b602060405180830381600087803b158015611bfb57600080fd5b505af1925050508015611c2c57506040513d601f19601f82011682018060405250810190611c299190612a79565b60015b611caf573d8060008114611c5c576040519150601f19603f3d011682016040523d82523d6000602084013e611c61565b606091505b50600081511415611ca7576040517f08c379a0000000000000000000000000000000000000000000000000000000008152600401611c9e90613596565b60405180910390fd5b805181602001fd5b63150b7a0260e01b7bffffffffffffffffffffffffffffffffffffffffffffffffffffffff1916817bffffffffffffffffffffffffffffffffffffffffffffffffffffffff191614915050611d04565b600190505b949350505050565b606060405180602001604052806000815250905090565b6060611d2e82611299565b611d6d576040517f08c379a0000000000000000000000000000000000000000000000000000000008152600401611d6490613776565b60405180910390fd5b6000611d77611d0c565b90506000815111611d975760405180602001604052806000815250611dc2565b80611da184612129565b604051602001611db292919061344c565b6040516020818303038152906040525b915050919050565b60007f01ffc9a7000000000000000000000000000000000000000000000000000000007bffffffffffffffffffffffffffffffffffffffffffffffffffffffff1916827bffffffffffffffffffffffffffffffffffffffffffffffffffffffff1916149050919050565b600073ffffffffffffffffffffffffffffffffffffffff168273ffffffffffffffffffffffffffffffffffffffff161415611ea4576040517f08c379a0000000000000000000000000000000000000000000000000000000008152600401611e9b906136d6565b60405180910390fd5b611ead81611299565b15611eed576040517f08c379a0000000000000000000000000000000000000000000000000000000008152600401611ee4906135d6565b60405180910390fd5b611ef960008383611b65565b6001600460008473ffffffffffffffffffffffffffffffffffffffff1673ffffffffffffffffffffffffffffffffffffffff1681526020019081526020016000206000828254611f49919061391e565b92505081905550816003600083815260200190815260200160002060006101000a81548173ffffffffffffffffffffffffffffffffffffffff021916908373ffffffffffffffffffffffffffffffffffffffff160217905550808273ffffffffffffffffffffffffffffffffffffffff16600073ffffffffffffffffffffffffffffffffffffffff167fddf252ad1be2c89b69c2b068fc378daa952ba7f163c4a11628f55a4df523b3ef60405160405180910390a45050565b61200d8383836122d6565b600073ffffffffffffffffffffffffffffffffffffffff168373ffffffffffffffffffffffffffffffffffffffff1614156120505761204b816122db565b61208f565b8173ffffffffffffffffffffffffffffffffffffffff168373ffffffffffffffffffffffffffffffffffffffff161461208e5761208d8382612324565b5b5b600073ffffffffffffffffffffffffffffffffffffffff168273ffffffffffffffffffffffffffffffffffffffff1614156120d2576120cd81612491565b612111565b8273ffffffffffffffffffffffffffffffffffffffff168273ffffffffffffffffffffffffffffffffffffffff16146121105761210f82826125d4565b5b5b505050565b600080823b905060008111915050919050565b60606000821415612171576040518060400160405280600181526020017f300000000000000000000000000000000000000000000000000000000000000081525090506122d1565b600082905060005b600082146121a357808061218c90613ac1565b915050600a8261219c9190613974565b9150612179565b60008167ffffffffffffffff8111156121e5577f4e487b7100000000000000000000000000000000000000000000000000000000600052604160045260246000fd5b6040519080825280601f01601f1916602001820160405280156122175781602001600182028036833780820191505090505b5090505b600085146122ca5760018261223091906139a5565b9150600a8561223f9190613b0a565b603061224b919061391e565b60f81b818381518110612287577f4e487b7100000000000000000000000000000000000000000000000000000000600052603260045260246000fd5b60200101907effffffffffffffffffffffffffffffffffffffffffffffffffffffffffffff1916908160001a905350600a856122c39190613974565b945061221b565b8093505050505b919050565b505050565b600a80549050600b600083815260200190815260200160002081905550600a81908060018154018082558091505060019003906000526020600020016000909190919091505550565b6000600161233184610d9e565b61233b91906139a5565b9050600060096000848152602001908152602001600020549050818114612420576000600860008673ffffffffffffffffffffffffffffffffffffffff1673ffffffffffffffffffffffffffffffffffffffff168152602001908152602001600020600084815260200190815260200160002054905080600860008773ffffffffffffffffffffffffffffffffffffffff1673ffffffffffffffffffffffffffffffffffffffff168152602001908152602001600020600084815260200190815260200160002081905550816009600083815260200190815260200160002081905550505b6009600084815260200190815260200160002060009055600860008573ffffffffffffffffffffffffffffffffffffffff1673ffffffffffffffffffffffffffffffffffffffff16815260200190815260200160002060008381526020019081526020016000206000905550505050565b60006001600a805490506124a591906139a5565b90506000600b60008481526020019081526020016000205490506000600a83815481106124fb577f4e487b7100000000000000000000000000000000000000000000000000000000600052603260045260246000fd5b9060005260206000200154905080600a8381548110612543577f4e487b7100000000000000000000000000000000000000000000000000000000600052603260045260246000fd5b906000526020600020018190555081600b600083815260200190815260200160002081905550600b600085815260200190815260200160002060009055600a8054806125b8577f4e487b7100000000000000000000000000000000000000000000000000000000600052603160045260246000fd5b6001900381819060005260206000200160009055905550505050565b60006125df83610d9e565b905081600860008573ffffffffffffffffffffffffffffffffffffffff1673ffffffffffffffffffffffffffffffffffffffff168152602001908152602001600020600083815260200190815260200160002081905550806009600084815260200190815260200160002081905550505050565b82805461265f90613a8f565b90600052602060002090601f01602090048101928261268157600085556126c8565b82601f1061269a57805160ff19168380011785556126c8565b828001600101855582156126c8579182015b828111156126c75782518255916020019190600101906126ac565b5b5090506126d591906126d9565b5090565b5b808211156126f25760008160009055506001016126da565b5090565b600061270961270484613842565b613811565b90508281526020810184848401111561272157600080fd5b61272c848285613a4d565b509392505050565b600061274761274284613872565b613811565b90508281526020810184848401111561275f57600080fd5b61276a848285613a4d565b509392505050565b60008135905061278181613c08565b92915050565b60008135905061279681613c1f565b92915050565b6000813590506127ab81613c36565b92915050565b6000815190506127c081613c36565b92915050565b600082601f8301126127d757600080fd5b81356127e78482602086016126f6565b91505092915050565b600082601f83011261280157600080fd5b8135612811848260208601612734565b91505092915050565b60008135905061282981613c4d565b92915050565b60006020828403121561284157600080fd5b600061284f84828501612772565b91505092915050565b6000806040838503121561286b57600080fd5b600061287985828601612772565b925050602061288a85828601612772565b9150509250929050565b6000806000606084860312156128a957600080fd5b60006128b786828701612772565b93505060206128c886828701612772565b92505060406128d986828701612787565b9150509250925092565b6000806000606084860312156128f857600080fd5b600061290686828701612772565b935050602061291786828701612772565b92505060406129288682870161281a565b9150509250925092565b6000806000806080858703121561294857600080fd5b600061295687828801612772565b945050602061296787828801612772565b93505060406129788782880161281a565b925050606085013567ffffffffffffffff81111561299557600080fd5b6129a1878288016127c6565b91505092959194509250565b6000806000606084860312156129c257600080fd5b60006129d086828701612772565b935050602084013567ffffffffffffffff8111156129ed57600080fd5b6129f9868287016127f0565b9250506040612a0a8682870161281a565b9150509250925092565b60008060408385031215612a2757600080fd5b6000612a3585828601612772565b9250506020612a468582860161281a565b9150509250929050565b600060208284031215612a6257600080fd5b6000612a708482850161279c565b91505092915050565b600060208284031215612a8b57600080fd5b6000612a99848285016127b1565b91505092915050565b600060208284031215612ab457600080fd5b6000612ac28482850161281a565b91505092915050565b6000612ad7838361342e565b60208301905092915050565b612aec816139d9565b82525050565b6000612afd826138b2565b612b0781856138e0565b9350612b12836138a2565b8060005b83811015612b43578151612b2a8882612acb565b9750612b35836138d3565b925050600181019050612b16565b5085935050505092915050565b612b59816139eb565b82525050565b6000612b6a826138bd565b612b7481856138f1565b9350612b84818560208601613a5c565b612b8d81613bf7565b840191505092915050565b6000612ba3826138c8565b612bad8185613902565b9350612bbd818560208601613a5c565b612bc681613bf7565b840191505092915050565b6000612bdc826138c8565b612be68185613913565b9350612bf6818560208601613a5c565b80840191505092915050565b6000612c0f602a83613902565b91507f546f6b656e2063616e6e6f74206265206d696e7465642c20706c6f7420616c7260008301527f65616479206f776e6564000000000000000000000000000000000000000000006020830152604082019050919050565b6000612c75603183613902565b91507f546f6b656e2063616e6e6f74206265206d696e7465642e204f7574206f66206260008301527f6f756e647320666f7220706c6f7449442e0000000000000000000000000000006020830152604082019050919050565b6000612cdb602b83613902565b91507f455243373231456e756d657261626c653a206f776e657220696e646578206f7560008301527f74206f6620626f756e64730000000000000000000000000000000000000000006020830152604082019050919050565b6000612d41603283613902565b91507f4552433732313a207472616e7366657220746f206e6f6e20455243373231526560008301527f63656976657220696d706c656d656e74657200000000000000000000000000006020830152604082019050919050565b6000612da7602683613902565b91507f4f776e61626c653a206e6577206f776e657220697320746865207a65726f206160008301527f64647265737300000000000000000000000000000000000000000000000000006020830152604082019050919050565b6000612e0d601c83613902565b91507f4552433732313a20746f6b656e20616c7265616479206d696e746564000000006000830152602082019050919050565b6000612e4d602483613902565b91507f4552433732313a207472616e7366657220746f20746865207a65726f2061646460008301527f72657373000000000000000000000000000000000000000000000000000000006020830152604082019050919050565b6000612eb3602c83613902565b91507f4552433732313a206f70657261746f7220717565727920666f72206e6f6e657860008301527f697374656e7420746f6b656e00000000000000000000000000000000000000006020830152604082019050919050565b6000612f19603883613902565b91507f4552433732313a20617070726f76652063616c6c6572206973206e6f74206f7760008301527f6e6572206e6f7220617070726f76656420666f7220616c6c00000000000000006020830152604082019050919050565b6000612f7f602a83613902565b91507f4552433732313a2062616c616e636520717565727920666f7220746865207a6560008301527f726f2061646472657373000000000000000000000000000000000000000000006020830152604082019050919050565b6000612fe5602983613902565b91507f4552433732313a206f776e657220717565727920666f72206e6f6e657869737460008301527f656e7420746f6b656e00000000000000000000000000000000000000000000006020830152604082019050919050565b600061304b602e83613902565b91507f45524337323155524953746f726167653a2055524920736574206f66206e6f6e60008301527f6578697374656e7420746f6b656e0000000000000000000000000000000000006020830152604082019050919050565b60006130b1601e83613902565b91507f43616e6e6f74206d696e7420746f6b656e2c20636170207265616368656400006000830152602082019050919050565b60006130f1602083613902565b91507f4552433732313a206d696e7420746f20746865207a65726f20616464726573736000830152602082019050919050565b6000613131603183613902565b91507f45524337323155524953746f726167653a2055524920717565727920666f722060008301527f6e6f6e6578697374656e7420746f6b656e0000000000000000000000000000006020830152604082019050919050565b6000613197602c83613902565b91507f4552433732313a20617070726f76656420717565727920666f72206e6f6e657860008301527f697374656e7420746f6b656e00000000000000000000000000000000000000006020830152604082019050919050565b60006131fd602083613902565b91507f4f776e61626c653a2063616c6c6572206973206e6f7420746865206f776e65726000830152602082019050919050565b600061323d602983613902565b91507f4552433732313a207472616e73666572206f6620746f6b656e2074686174206960008301527f73206e6f74206f776e00000000000000000000000000000000000000000000006020830152604082019050919050565b60006132a3602f83613902565b91507f4552433732314d657461646174613a2055524920717565727920666f72206e6f60008301527f6e6578697374656e7420746f6b656e00000000000000000000000000000000006020830152604082019050919050565b6000613309602183613902565b91507f4552433732313a20617070726f76616c20746f2063757272656e74206f776e6560008301527f72000000000000000000000000000000000000000000000000000000000000006020830152604082019050919050565b600061336f603183613902565b91507f4552433732313a207472616e736665722063616c6c6572206973206e6f74206f60008301527f776e6572206e6f7220617070726f7665640000000000000000000000000000006020830152604082019050919050565b60006133d5602c83613902565b91507f455243373231456e756d657261626c653a20676c6f62616c20696e646578206f60008301527f7574206f6620626f756e647300000000000000000000000000000000000000006020830152604082019050919050565b61343781613a43565b82525050565b61344681613a43565b82525050565b60006134588285612bd1565b91506134648284612bd1565b91508190509392505050565b60006020820190506134856000830184612ae3565b92915050565b60006080820190506134a06000830187612ae3565b6134ad6020830186612ae3565b6134ba604083018561343d565b81810360608301526134cc8184612b5f565b905095945050505050565b600060208201905081810360008301526134f18184612af2565b905092915050565b600060208201905061350e6000830184612b50565b92915050565b6000602082019050818103600083015261352e8184612b98565b905092915050565b6000602082019050818103600083015261354f81612c02565b9050919050565b6000602082019050818103600083015261356f81612c68565b9050919050565b6000602082019050818103600083015261358f81612cce565b9050919050565b600060208201905081810360008301526135af81612d34565b9050919050565b600060208201905081810360008301526135cf81612d9a565b9050919050565b600060208201905081810360008301526135ef81612e00565b9050919050565b6000602082019050818103600083015261360f81612e40565b9050919050565b6000602082019050818103600083015261362f81612ea6565b9050919050565b6000602082019050818103600083015261364f81612f0c565b9050919050565b6000602082019050818103600083015261366f81612f72565b9050919050565b6000602082019050818103600083015261368f81612fd8565b9050919050565b600060208201905081810360008301526136af8161303e565b9050919050565b600060208201905081810360008301526136cf816130a4565b9050919050565b600060208201905081810360008301526136ef816130e4565b9050919050565b6000602082019050818103600083015261370f81613124565b9050919050565b6000602082019050818103600083015261372f8161318a565b9050919050565b6000602082019050818103600083015261374f816131f0565b9050919050565b6000602082019050818103600083015261376f81613230565b9050919050565b6000602082019050818103600083015261378f81613296565b9050919050565b600060208201905081810360008301526137af816132fc565b9050919050565b600060208201905081810360008301526137cf81613362565b9050919050565b600060208201905081810360008301526137ef816133c8565b9050919050565b600060208201905061380b600083018461343d565b92915050565b6000604051905081810181811067ffffffffffffffff8211171561383857613837613bc8565b5b8060405250919050565b600067ffffffffffffffff82111561385d5761385c613bc8565b5b601f19601f8301169050602081019050919050565b600067ffffffffffffffff82111561388d5761388c613bc8565b5b601f19601f8301169050602081019050919050565b6000819050602082019050919050565b600081519050919050565b600081519050919050565b600081519050919050565b6000602082019050919050565b600082825260208201905092915050565b600082825260208201905092915050565b600082825260208201905092915050565b600081905092915050565b600061392982613a43565b915061393483613a43565b9250827fffffffffffffffffffffffffffffffffffffffffffffffffffffffffffffffff0382111561396957613968613b3b565b5b828201905092915050565b600061397f82613a43565b915061398a83613a43565b92508261399a57613999613b6a565b5b828204905092915050565b60006139b082613a43565b91506139bb83613a43565b9250828210156139ce576139cd613b3b565b5b828203905092915050565b60006139e482613a23565b9050919050565b60008115159050919050565b60007fffffffff0000000000000000000000000000000000000000000000000000000082169050919050565b600073ffffffffffffffffffffffffffffffffffffffff82169050919050565b6000819050919050565b82818337600083830152505050565b60005b83811015613a7a578082015181840152602081019050613a5f565b83811115613a89576000848401525b50505050565b60006002820490506001821680613aa757607f821691505b60208210811415613abb57613aba613b99565b5b50919050565b6000613acc82613a43565b91507fffffffffffffffffffffffffffffffffffffffffffffffffffffffffffffffff821415613aff57613afe613b3b565b5b600182019050919050565b6000613b1582613a43565b9150613b2083613a43565b925082613b3057613b2f613b6a565b5b828206905092915050565b7f4e487b7100000000000000000000000000000000000000000000000000000000600052601160045260246000fd5b7f4e487b7100000000000000000000000000000000000000000000000000000000600052601260045260246000fd5b7f4e487b7100000000000000000000000000000000000000000000000000000000600052602260045260246000fd5b7f4e487b7100000000000000000000000000000000000000000000000000000000600052604160045260246000fd5b6000601f19601f8301169050919050565b613c11816139d9565b8114613c1c57600080fd5b50565b613c28816139eb565b8114613c3357600080fd5b50565b613c3f816139f7565b8114613c4a57600080fd5b50565b613c5681613a43565b8114613c6157600080fd5b5056fea264697066735822122009710d7faa9e30584dcf087ed0f6a19c549fad836041950520e80359c04e6eb864736f6c63430008000033",
  "immutableReferences": {},
  "source": "pragma solidity ^0.8.0;\r\n\r\nimport \"@openzeppelin/contracts/token/ERC721/ERC721.sol\";\r\nimport \"@openzeppelin/contracts/utils/Counters.sol\";\r\nimport \"@openzeppelin/contracts/access/Ownable.sol\";\r\nimport \"@openzeppelin/contracts/token/ERC721/extensions/ERC721URIStorage.sol\";\r\nimport \"@openzeppelin/contracts/token/ERC721/extensions/ERC721Enumerable.sol\";\r\nimport \"@openzeppelin/contracts/utils/math/SafeMath.sol\";\r\n\r\ncontract ERC721Token is ERC721URIStorage, ERC721Enumerable {\r\n  using Counters for Counters.Counter;\r\n  using SafeMath for uint256;\r\n  Counters.Counter private _tokenIds;\r\n  uint256 private _cap;\r\n\r\n  event Minted(address indexed recipient, uint256 tokenID);\r\n\r\n  constructor(uint256 cap) ERC721(\"TOKENNAME\", \"TOK\"){\r\n    require(cap > 0, \"ERC721: cap must be non-zero\");\r\n    _cap = cap;\r\n  }\r\n\r\n  function mintNFT(address recipient, string memory uri, uint256 tokenID)\r\n    public onlyOwner\r\n    returns (uint256)\r\n  {\r\n    require(_exists(tokenID) != true, \"Token cannot be minted, plot already owned\");\r\n    require(tokenID > 0 && tokenID <= _cap, \"Token cannot be minted. Out of bounds for plotID.\");\r\n    require(_tokenIds.current() <= _cap, \"Cannot mint token, cap reached\");\r\n\r\n    _tokenIds.increment();\r\n    _safeMint(recipient, tokenID);\r\n    _setTokenURI(tokenID, uri);\r\n    setApprovalForAll(recipient, owner(), true);\r\n    return tokenID;\r\n  }\r\n\r\n  function exists(uint256 plotID) public onlyOwner view returns(bool)\r\n  {\r\n    return(_exists(plotID));\r\n  }\r\n\r\n  function checkCap()\r\n  public onlyOwner view\r\n  returns (uint256)\r\n  {\r\n    return _cap;\r\n  }\r\n\r\n  function _beforeTokenTransfer(address from, address to, uint256 tokenId)\r\n    internal\r\n    override(ERC721, ERC721Enumerable)\r\n  {\r\n      super._beforeTokenTransfer(from, to, tokenId);\r\n  }\r\n\r\n  function _burn(uint256 tokenId) internal override(ERC721, ERC721URIStorage) {\r\n      super._burn(tokenId);\r\n  }\r\n\r\n  function tokenURI(uint256 tokenId)\r\n      public\r\n      view\r\n      override(ERC721, ERC721URIStorage)\r\n      returns (string memory)\r\n  {\r\n      return super.tokenURI(tokenId);\r\n  }\r\n\r\n  function supportsInterface(bytes4 interfaceId)\r\n      public\r\n      view\r\n      override(ERC721, ERC721Enumerable)\r\n      returns (bool)\r\n  {\r\n      return super.supportsInterface(interfaceId);\r\n  }\r\n\r\n  function enumerateTokens(address owner) public view returns(uint256[] memory)\r\n  {\r\n      uint256[] memory tokenIds;\r\n      uint256 tokenIndex = balanceOf(owner);\r\n      for(uint256 index=0; index<tokenIndex; index++){\r\n          tokenIds[index] = tokenOfOwnerByIndex(owner, index);\r\n      }\r\n      return tokenIds;\r\n  }\r\n\r\n\r\n}\r\n",
  "sourcePath": "C:\\Users\\kerpr\\Desktop\\NFT-Wrapper-Contract\\contracts\\ERC721Token.sol",
  "compiler": {
    "name": "solc",
    "version": "0.8.0+commit.c7dfd78e.Emscripten.clang"
  },
  "schemaVersion": "3.4.1",
  "updatedAt": "2021-11-21T18:45:19.048Z",
  "devdoc": {
    "kind": "dev",
    "methods": {
      "approve(address,uint256)": {
        "details": "See {IERC721-approve}."
      },
      "balanceOf(address)": {
        "details": "See {IERC721-balanceOf}."
      },
      "getApproved(uint256)": {
        "details": "See {IERC721-getApproved}."
      },
      "isApprovedForAll(address,address)": {
        "details": "See {IERC721-isApprovedForAll}."
      },
      "name()": {
        "details": "See {IERC721Metadata-name}."
      },
      "owner()": {
        "details": "Returns the address of the current owner."
      },
      "ownerOf(uint256)": {
        "details": "See {IERC721-ownerOf}."
      },
      "renounceOwnership()": {
        "details": "Leaves the contract without owner. It will not be possible to call `onlyOwner` functions anymore. Can only be called by the current owner. NOTE: Renouncing ownership will leave the contract without an owner, thereby removing any functionality that is only available to the owner."
      },
      "safeTransferFrom(address,address,uint256)": {
        "details": "See {IERC721-safeTransferFrom}."
      },
      "safeTransferFrom(address,address,uint256,bytes)": {
        "details": "See {IERC721-safeTransferFrom}."
      },
      "setApprovalForAll(address,address,bool)": {
        "details": "See {IERC721-setApprovalForAll}."
      },
      "symbol()": {
        "details": "See {IERC721Metadata-symbol}."
      },
      "tokenByIndex(uint256)": {
        "details": "See {IERC721Enumerable-tokenByIndex}."
      },
      "tokenOfOwnerByIndex(address,uint256)": {
        "details": "See {IERC721Enumerable-tokenOfOwnerByIndex}."
      },
      "totalSupply()": {
        "details": "See {IERC721Enumerable-totalSupply}."
      },
      "transferFrom(address,address,uint256)": {
        "details": "See {IERC721-transferFrom}."
      },
      "transferOwnership(address)": {
        "details": "Transfers ownership of the contract to a new account (`newOwner`). Can only be called by the current owner."
      }
    },
    "version": 1
  },
  "userdoc": {
    "kind": "user",
    "methods": {},
    "version": 1
  }
}