{
  "contractName": "ERC721Wrapper",
  "abi": [
    {
      "inputs": [
        {
          "internalType": "address payable",
          "name": "TokenAddress",
          "type": "address"
        }
      ],
      "stateMutability": "nonpayable",
      "type": "constructor"
    },
    {
      "anonymous": false,
      "inputs": [
        {
          "indexed": true,
          "internalType": "address",
          "name": "recipient",
          "type": "address"
        },
        {
          "indexed": false,
          "internalType": "uint256",
          "name": "tokenID",
          "type": "uint256"
        }
      ],
      "name": "Minted",
      "type": "event"
    },
    {
      "anonymous": false,
      "inputs": [
        {
          "indexed": true,
          "internalType": "address",
          "name": "previousOwner",
          "type": "address"
        },
        {
          "indexed": true,
          "internalType": "address",
          "name": "newOwner",
          "type": "address"
        }
      ],
      "name": "OwnershipTransferred",
      "type": "event"
    },
    {
      "stateMutability": "payable",
      "type": "fallback"
    },
    {
      "inputs": [],
      "name": "baseToken",
      "outputs": [
        {
          "internalType": "contract ERC721Token",
          "name": "",
          "type": "address"
        }
      ],
      "stateMutability": "view",
      "type": "function"
    },
    {
      "inputs": [],
      "name": "owner",
      "outputs": [
        {
          "internalType": "address",
          "name": "",
          "type": "address"
        }
      ],
      "stateMutability": "view",
      "type": "function"
    },
    {
      "inputs": [],
      "name": "renounceOwnership",
      "outputs": [],
      "stateMutability": "nonpayable",
      "type": "function"
    },
    {
      "inputs": [
        {
          "internalType": "address",
          "name": "newOwner",
          "type": "address"
        }
      ],
      "name": "transferOwnership",
      "outputs": [],
      "stateMutability": "nonpayable",
      "type": "function"
    },
    {
      "stateMutability": "payable",
      "type": "receive"
    },
    {
      "inputs": [
        {
          "internalType": "uint256",
          "name": "tokenID",
          "type": "uint256"
        }
      ],
      "name": "checkExist",
      "outputs": [
        {
          "internalType": "bool",
          "name": "",
          "type": "bool"
        }
      ],
      "stateMutability": "view",
      "type": "function"
    },
    {
      "inputs": [],
      "name": "getTokenAddress",
      "outputs": [
        {
          "internalType": "address",
          "name": "",
          "type": "address"
        }
      ],
      "stateMutability": "view",
      "type": "function"
    },
    {
      "inputs": [],
      "name": "getBalance",
      "outputs": [
        {
          "internalType": "uint256",
          "name": "",
          "type": "uint256"
        }
      ],
      "stateMutability": "view",
      "type": "function"
    },
    {
      "inputs": [],
      "name": "withdrawFunds",
      "outputs": [],
      "stateMutability": "nonpayable",
      "type": "function"
    },
    {
      "inputs": [
        {
          "internalType": "uint256",
          "name": "tokenID",
          "type": "uint256"
        }
      ],
      "name": "checkTokenPrice",
      "outputs": [
        {
          "internalType": "uint256",
          "name": "",
          "type": "uint256"
        }
      ],
      "stateMutability": "view",
      "type": "function"
    },
    {
      "inputs": [
        {
          "internalType": "address",
          "name": "minter",
          "type": "address"
        },
        {
          "internalType": "string",
          "name": "uri",
          "type": "string"
        },
        {
          "internalType": "uint256",
          "name": "id",
          "type": "uint256"
        },
        {
          "internalType": "uint256",
          "name": "newPrice",
          "type": "uint256"
        }
      ],
      "name": "sendFee",
      "outputs": [],
      "stateMutability": "payable",
      "type": "function"
    },
    {
      "inputs": [
        {
          "internalType": "uint256",
          "name": "tokenID",
          "type": "uint256"
        }
      ],
      "name": "checkOwner",
      "outputs": [
        {
          "internalType": "address",
          "name": "",
          "type": "address"
        }
      ],
      "stateMutability": "view",
      "type": "function"
    },
    {
      "inputs": [
        {
          "internalType": "address",
          "name": "owner",
          "type": "address"
        }
      ],
      "name": "checkOperator",
      "outputs": [
        {
          "internalType": "bool",
          "name": "",
          "type": "bool"
        }
      ],
      "stateMutability": "view",
      "type": "function"
    },
    {
      "inputs": [
        {
          "internalType": "address payable",
          "name": "from",
          "type": "address"
        },
        {
          "internalType": "address",
          "name": "to",
          "type": "address"
        },
        {
          "internalType": "uint256",
          "name": "tokenID",
          "type": "uint256"
        },
        {
          "internalType": "uint256",
          "name": "newPrice",
          "type": "uint256"
        }
      ],
      "name": "purchaseToken",
      "outputs": [],
      "stateMutability": "payable",
      "type": "function"
    },
    {
      "inputs": [
        {
          "internalType": "address",
          "name": "owner",
          "type": "address"
        }
      ],
      "name": "checkBalance",
      "outputs": [
        {
          "internalType": "uint256",
          "name": "",
          "type": "uint256"
        }
      ],
      "stateMutability": "view",
      "type": "function"
    },
    {
      "inputs": [
        {
          "internalType": "address",
          "name": "owner",
          "type": "address"
        },
        {
          "internalType": "uint256",
          "name": "index",
          "type": "uint256"
        }
      ],
      "name": "byIndex",
      "outputs": [
        {
          "internalType": "uint256",
          "name": "",
          "type": "uint256"
        }
      ],
      "stateMutability": "view",
      "type": "function"
    }
  ],
  "bytecode": "0x608060405266b1a2bc2ec500006002553480156200001c57600080fd5b5060405162002127380380620021278339818101604052810190620000429190620001d0565b6200006262000056620000eb60201b60201c565b620000f360201b60201c565b80600360006101000a81548173ffffffffffffffffffffffffffffffffffffffff021916908373ffffffffffffffffffffffffffffffffffffffff16021790555080600460006101000a81548173ffffffffffffffffffffffffffffffffffffffff021916908373ffffffffffffffffffffffffffffffffffffffff160217905550506200024a565b600033905090565b6000600160009054906101000a900473ffffffffffffffffffffffffffffffffffffffff16905081600160006101000a81548173ffffffffffffffffffffffffffffffffffffffff021916908373ffffffffffffffffffffffffffffffffffffffff1602179055508173ffffffffffffffffffffffffffffffffffffffff168173ffffffffffffffffffffffffffffffffffffffff167f8be0079c531659141344cd1fd0a4f28419497f9722a3daafe3b4186f6b6457e060405160405180910390a35050565b600081519050620001ca8162000230565b92915050565b600060208284031215620001e357600080fd5b6000620001f384828501620001b9565b91505092915050565b6000620002098262000210565b9050919050565b600073ffffffffffffffffffffffffffffffffffffffff82169050919050565b6200023b81620001fc565b81146200024757600080fd5b50565b611ecd806200025a6000396000f3fe6080604052600436106100ec5760003560e01c8063825f6f911161008a578063aef336a911610059578063aef336a9146102f1578063c55dae631461030d578063de1ac2fd14610338578063f2fde38b14610375576100f3565b8063825f6f91146102305780638da5cb5b1461024c5780639870dce014610277578063ae9b6b59146102b4576100f3565b806330d02a94116100c657806330d02a94146101625780635b4f0a9a1461019f5780635f515226146101dc578063715018a614610219576100f3565b806310fe9ae8146100f557806312065fe01461012057806324600fc31461014b576100f3565b366100f357005b005b34801561010157600080fd5b5061010a61039e565b60405161011791906119d3565b60405180910390f35b34801561012c57600080fd5b50610135610444565b6040516101429190611c62565b60405180910390f35b34801561015757600080fd5b506101606104c8565b005b34801561016e57600080fd5b5061018960048036038101906101849190611602565b6105a7565b6040516101969190611c62565b60405180910390f35b3480156101ab57600080fd5b506101c660048036038101906101c19190611602565b6105c4565b6040516101d39190611aec565b60405180910390f35b3480156101e857600080fd5b5061020360048036038101906101fe919061146d565b610678565b6040516102109190611c62565b60405180910390f35b34801561022557600080fd5b5061022e61072c565b005b61024a60048036038101906102459190611522565b6107b4565b005b34801561025857600080fd5b506102616109b7565b60405161026e91906119d3565b60405180910390f35b34801561028357600080fd5b5061029e60048036038101906102999190611602565b6109e1565b6040516102ab91906119d3565b60405180910390f35b3480156102c057600080fd5b506102db60048036038101906102d6919061159d565b610a9a565b6040516102e89190611c62565b60405180910390f35b61030b600480360381019061030691906114bf565b610b51565b005b34801561031957600080fd5b50610322610e0c565b60405161032f9190611b07565b60405180910390f35b34801561034457600080fd5b5061035f600480360381019061035a919061146d565b610e32565b60405161036c9190611aec565b60405180910390f35b34801561038157600080fd5b5061039c6004803603810190610397919061146d565b610f64565b005b60006103a861105c565b73ffffffffffffffffffffffffffffffffffffffff166103c66109b7565b73ffffffffffffffffffffffffffffffffffffffff161461041c576040517f08c379a000000000000000000000000000000000000000000000000000000000815260040161041390611bc2565b60405180910390fd5b600460009054906101000a900473ffffffffffffffffffffffffffffffffffffffff16905090565b600061044e61105c565b73ffffffffffffffffffffffffffffffffffffffff1661046c6109b7565b73ffffffffffffffffffffffffffffffffffffffff16146104c2576040517f08c379a00000000000000000000000000000000000000000000000000000000081526004016104b990611bc2565b60405180910390fd5b47905090565b6104d061105c565b73ffffffffffffffffffffffffffffffffffffffff166104ee6109b7565b73ffffffffffffffffffffffffffffffffffffffff1614610544576040517f08c379a000000000000000000000000000000000000000000000000000000000815260040161053b90611bc2565b60405180910390fd5b600061054e610444565b9050600061055a6109b7565b90508073ffffffffffffffffffffffffffffffffffffffff166108fc839081150290604051600060405180830381858888f193505050501580156105a2573d6000803e3d6000fd5b505050565b600060066000838152602001908152602001600020549050919050565b6000600360009054906101000a900473ffffffffffffffffffffffffffffffffffffffff1673ffffffffffffffffffffffffffffffffffffffff16634f558e79836040518263ffffffff1660e01b81526004016106219190611c62565b60206040518083038186803b15801561063957600080fd5b505afa15801561064d573d6000803e3d6000fd5b505050506040513d601f19601f8201168201806040525081019061067191906115d9565b9050919050565b6000600360009054906101000a900473ffffffffffffffffffffffffffffffffffffffff1673ffffffffffffffffffffffffffffffffffffffff166370a08231836040518263ffffffff1660e01b81526004016106d591906119d3565b60206040518083038186803b1580156106ed57600080fd5b505afa158015610701573d6000803e3d6000fd5b505050506040513d601f19601f82011682018060405250810190610725919061162b565b9050919050565b61073461105c565b73ffffffffffffffffffffffffffffffffffffffff166107526109b7565b73ffffffffffffffffffffffffffffffffffffffff16146107a8576040517f08c379a000000000000000000000000000000000000000000000000000000000815260040161079f90611bc2565b60405180910390fd5b6107b26000611064565b565b600160005414156107fa576040517f08c379a00000000000000000000000000000000000000000000000000000000081526004016107f190611b82565b60405180910390fd5b60016000819055506001151561080f836105c4565b15151415610852576040517f08c379a000000000000000000000000000000000000000000000000000000000815260040161084990611b42565b60405180910390fd5b600254341015610897576040517f08c379a000000000000000000000000000000000000000000000000000000000815260040161088e90611ba2565b60405180910390fd5b60003073ffffffffffffffffffffffffffffffffffffffff16346040516108bd906119be565b60006040518083038185875af1925050503d80600081146108fa576040519150601f19603f3d011682016040523d82523d6000602084013e6108ff565b606091505b5050905080610943576040517f08c379a000000000000000000000000000000000000000000000000000000000815260040161093a90611c22565b60405180910390fd5b6001600560003373ffffffffffffffffffffffffffffffffffffffff1673ffffffffffffffffffffffffffffffffffffffff16815260200190815260200160002060006101000a81548160ff0219169083151502179055506109a78585858561112a565b5050600260008190555050505050565b6000600160009054906101000a900473ffffffffffffffffffffffffffffffffffffffff16905090565b600080600360009054906101000a900473ffffffffffffffffffffffffffffffffffffffff1673ffffffffffffffffffffffffffffffffffffffff16636352211e846040518263ffffffff1660e01b8152600401610a3f9190611c62565b60206040518083038186803b158015610a5757600080fd5b505afa158015610a6b573d6000803e3d6000fd5b505050506040513d601f19601f82011682018060405250810190610a8f9190611496565b905080915050919050565b6000600360009054906101000a900473ffffffffffffffffffffffffffffffffffffffff1673ffffffffffffffffffffffffffffffffffffffff16632f745c5984846040518363ffffffff1660e01b8152600401610af9929190611ac3565b60206040518083038186803b158015610b1157600080fd5b505afa158015610b25573d6000803e3d6000fd5b505050506040513d601f19601f82011682018060405250810190610b49919061162b565b905092915050565b610b5a826109e1565b73ffffffffffffffffffffffffffffffffffffffff163373ffffffffffffffffffffffffffffffffffffffff161415610bc8576040517f08c379a0000000000000000000000000000000000000000000000000000000008152600401610bbf90611c02565b60405180910390fd5b6006600083815260200190815260200160002054341015610c1e576040517f08c379a0000000000000000000000000000000000000000000000000000000008152600401610c1590611b22565b60405180910390fd5b80600660008481526020019081526020016000208190555060008473ffffffffffffffffffffffffffffffffffffffff1634604051610c5c906119be565b60006040518083038185875af1925050503d8060008114610c99576040519150601f19603f3d011682016040523d82523d6000602084013e610c9e565b606091505b5050905080610ce2576040517f08c379a0000000000000000000000000000000000000000000000000000000008152600401610cd990611c22565b60405180910390fd5b600360009054906101000a900473ffffffffffffffffffffffffffffffffffffffff1673ffffffffffffffffffffffffffffffffffffffff1663367605ca853060016040518463ffffffff1660e01b8152600401610d4293929190611a4e565b600060405180830381600087803b158015610d5c57600080fd5b505af1158015610d70573d6000803e3d6000fd5b50505050600360009054906101000a900473ffffffffffffffffffffffffffffffffffffffff1673ffffffffffffffffffffffffffffffffffffffff166342842e0e8686866040518463ffffffff1660e01b8152600401610dd3939291906119ee565b600060405180830381600087803b158015610ded57600080fd5b505af1158015610e01573d6000803e3d6000fd5b505050505050505050565b600360009054906101000a900473ffffffffffffffffffffffffffffffffffffffff1681565b6000610e3c61105c565b73ffffffffffffffffffffffffffffffffffffffff16610e5a6109b7565b73ffffffffffffffffffffffffffffffffffffffff1614610eb0576040517f08c379a0000000000000000000000000000000000000000000000000000000008152600401610ea790611bc2565b60405180910390fd5b600360009054906101000a900473ffffffffffffffffffffffffffffffffffffffff1673ffffffffffffffffffffffffffffffffffffffff1663e985e9c583306040518363ffffffff1660e01b8152600401610f0d929190611a25565b60206040518083038186803b158015610f2557600080fd5b505afa158015610f39573d6000803e3d6000fd5b505050506040513d601f19601f82011682018060405250810190610f5d91906115d9565b9050919050565b610f6c61105c565b73ffffffffffffffffffffffffffffffffffffffff16610f8a6109b7565b73ffffffffffffffffffffffffffffffffffffffff1614610fe0576040517f08c379a0000000000000000000000000000000000000000000000000000000008152600401610fd790611bc2565b60405180910390fd5b600073ffffffffffffffffffffffffffffffffffffffff168173ffffffffffffffffffffffffffffffffffffffff161415611050576040517f08c379a000000000000000000000000000000000000000000000000000000000815260040161104790611b62565b60405180910390fd5b61105981611064565b50565b600033905090565b6000600160009054906101000a900473ffffffffffffffffffffffffffffffffffffffff16905081600160006101000a81548173ffffffffffffffffffffffffffffffffffffffff021916908373ffffffffffffffffffffffffffffffffffffffff1602179055508173ffffffffffffffffffffffffffffffffffffffff168173ffffffffffffffffffffffffffffffffffffffff167f8be0079c531659141344cd1fd0a4f28419497f9722a3daafe3b4186f6b6457e060405160405180910390a35050565b6000600560008673ffffffffffffffffffffffffffffffffffffffff1673ffffffffffffffffffffffffffffffffffffffff16815260200190815260200160002060009054906101000a900460ff166111b8576040517f08c379a00000000000000000000000000000000000000000000000000000000081526004016111af90611c42565b60405180910390fd5b600115156111c5846105c4565b15151415611208576040517f08c379a00000000000000000000000000000000000000000000000000000000081526004016111ff90611be2565b60405180910390fd5b6000600560008773ffffffffffffffffffffffffffffffffffffffff1673ffffffffffffffffffffffffffffffffffffffff16815260200190815260200160002060006101000a81548160ff0219169083151502179055508160066000858152602001908152602001600020819055506000600360009054906101000a900473ffffffffffffffffffffffffffffffffffffffff1673ffffffffffffffffffffffffffffffffffffffff166308598df08787876040518463ffffffff1660e01b81526004016112d993929190611a85565b602060405180830381600087803b1580156112f357600080fd5b505af1158015611307573d6000803e3d6000fd5b505050506040513d601f19601f8201168201806040525081019061132b919061162b565b90508573ffffffffffffffffffffffffffffffffffffffff167f30385c845b448a36257a6a1716e6ad2e1bc2cbe333cde1e69fe849ad6511adfe826040516113739190611c62565b60405180910390a280915050949350505050565b600061139a61139584611cae565b611c7d565b9050828152602081018484840111156113b257600080fd5b6113bd848285611db9565b509392505050565b6000813590506113d481611e3b565b92915050565b6000815190506113e981611e3b565b92915050565b6000813590506113fe81611e52565b92915050565b60008151905061141381611e69565b92915050565b600082601f83011261142a57600080fd5b813561143a848260208601611387565b91505092915050565b60008135905061145281611e80565b92915050565b60008151905061146781611e80565b92915050565b60006020828403121561147f57600080fd5b600061148d848285016113c5565b91505092915050565b6000602082840312156114a857600080fd5b60006114b6848285016113da565b91505092915050565b600080600080608085870312156114d557600080fd5b60006114e3878288016113ef565b94505060206114f4878288016113c5565b935050604061150587828801611443565b925050606061151687828801611443565b91505092959194509250565b6000806000806080858703121561153857600080fd5b6000611546878288016113c5565b945050602085013567ffffffffffffffff81111561156357600080fd5b61156f87828801611419565b935050604061158087828801611443565b925050606061159187828801611443565b91505092959194509250565b600080604083850312156115b057600080fd5b60006115be858286016113c5565b92505060206115cf85828601611443565b9150509250929050565b6000602082840312156115eb57600080fd5b60006115f984828501611404565b91505092915050565b60006020828403121561161457600080fd5b600061162284828501611443565b91505092915050565b60006020828403121561163d57600080fd5b600061164b84828501611458565b91505092915050565b61165d81611d5f565b82525050565b61166c81611d05565b82525050565b61167b81611d29565b82525050565b61168a81611d71565b82525050565b600061169b82611cde565b6116a58185611cf4565b93506116b5818560208601611dc8565b6116be81611e2a565b840191505092915050565b60006116d6601383611cf4565b91507f4d7573742073656e64206d6f7265204554482e000000000000000000000000006000830152602082019050919050565b6000611716601583611cf4565b91507f546f6b656e20616c7265616479206d696e7465642e00000000000000000000006000830152602082019050919050565b6000611756602683611cf4565b91507f4f776e61626c653a206e6577206f776e657220697320746865207a65726f206160008301527f64647265737300000000000000000000000000000000000000000000000000006020830152604082019050919050565b60006117bc600283611cf4565b91507f4e6f0000000000000000000000000000000000000000000000000000000000006000830152602082019050919050565b60006117fc601f83611cf4565b91507f4d7573742073656e6420302e303520455448206d696e74696e67206665652e006000830152602082019050919050565b600061183c602083611cf4565b91507f4f776e61626c653a2063616c6c6572206973206e6f7420746865206f776e65726000830152602082019050919050565b600061187c603983611cf4565b91507f546f6b656e20616c7265616479206d696e7465642c20706c656173652070757260008301527f63686173652066726f6d2063757272656e74206f776e65722e000000000000006020830152604082019050919050565b60006118e2601a83611cf4565b91507f596f7520616c7265616479206f776e207468697320706c6f742e0000000000006000830152602082019050919050565b6000611922600083611ce9565b9150600082019050919050565b600061193c601283611cf4565b91507f436f756c64206e6f742073656e642045544800000000000000000000000000006000830152602082019050919050565b600061197c601583611cf4565b91507f4d75737420706179206d696e74696e67206665652e00000000000000000000006000830152602082019050919050565b6119b881611d55565b82525050565b60006119c982611915565b9150819050919050565b60006020820190506119e86000830184611663565b92915050565b6000606082019050611a036000830186611654565b611a106020830185611663565b611a1d60408301846119af565b949350505050565b6000604082019050611a3a6000830185611663565b611a476020830184611663565b9392505050565b6000606082019050611a636000830186611663565b611a706020830185611663565b611a7d6040830184611672565b949350505050565b6000606082019050611a9a6000830186611663565b8181036020830152611aac8185611690565b9050611abb60408301846119af565b949350505050565b6000604082019050611ad86000830185611663565b611ae560208301846119af565b9392505050565b6000602082019050611b016000830184611672565b92915050565b6000602082019050611b1c6000830184611681565b92915050565b60006020820190508181036000830152611b3b816116c9565b9050919050565b60006020820190508181036000830152611b5b81611709565b9050919050565b60006020820190508181036000830152611b7b81611749565b9050919050565b60006020820190508181036000830152611b9b816117af565b9050919050565b60006020820190508181036000830152611bbb816117ef565b9050919050565b60006020820190508181036000830152611bdb8161182f565b9050919050565b60006020820190508181036000830152611bfb8161186f565b9050919050565b60006020820190508181036000830152611c1b816118d5565b9050919050565b60006020820190508181036000830152611c3b8161192f565b9050919050565b60006020820190508181036000830152611c5b8161196f565b9050919050565b6000602082019050611c7760008301846119af565b92915050565b6000604051905081810181811067ffffffffffffffff82111715611ca457611ca3611dfb565b5b8060405250919050565b600067ffffffffffffffff821115611cc957611cc8611dfb565b5b601f19601f8301169050602081019050919050565b600081519050919050565b600081905092915050565b600082825260208201905092915050565b6000611d1082611d35565b9050919050565b6000611d2282611d35565b9050919050565b60008115159050919050565b600073ffffffffffffffffffffffffffffffffffffffff82169050919050565b6000819050919050565b6000611d6a82611d95565b9050919050565b6000611d7c82611d83565b9050919050565b6000611d8e82611d35565b9050919050565b6000611da082611da7565b9050919050565b6000611db282611d35565b9050919050565b82818337600083830152505050565b60005b83811015611de6578082015181840152602081019050611dcb565b83811115611df5576000848401525b50505050565b7f4e487b7100000000000000000000000000000000000000000000000000000000600052604160045260246000fd5b6000601f19601f8301169050919050565b611e4481611d05565b8114611e4f57600080fd5b50565b611e5b81611d17565b8114611e6657600080fd5b50565b611e7281611d29565b8114611e7d57600080fd5b50565b611e8981611d55565b8114611e9457600080fd5b5056fea26469706673582212203149bbf769bd4cd138a65e51623851e79f0fbcd30b732e0ffc94bd20f2a7fe5f64736f6c63430008000033",
  "immutableReferences": {},
  "source": "pragma solidity ^0.8.0;\r\n\r\nimport \"./ERC721Token.sol\";\r\nimport \"@openzeppelin/contracts/access/Ownable.sol\";\r\nimport \"@openzeppelin/contracts/utils/math/SafeMath.sol\";\r\n\r\ncontract ReentrancyGuard{\r\n  uint private _executing;\r\n  modifier reentrancyGuard(){\r\n    require(_executing!=1,\"No\");\r\n    _executing=1;\r\n    _;\r\n    _executing=2;\r\n  }\r\n}\r\n\r\ncontract ERC721Wrapper is ReentrancyGuard, Ownable {\r\n  using SafeMath for uint256;\r\n  uint256 private initPrice = 50000000000000000; // 0.05 ETH\r\n\r\n\r\n  ERC721Token public baseToken;\r\n  address private baseTokenAddress;\r\n\r\n  mapping(address => bool) private paidForToken;\r\n  mapping(uint256 => uint256) private tokenPrices;\r\n\r\n  event Minted(address indexed recipient, uint256 tokenID);\r\n\r\n  constructor(\r\n    address payable TokenAddress\r\n    )\r\n    {\r\n      baseToken = ERC721Token(TokenAddress);\r\n      baseTokenAddress = TokenAddress;\r\n    }\r\n\r\n    // Function to receive Ether. msg.data must be empty\r\n    receive() external payable {}\r\n\r\n    // Fallback function is called when msg.data is not empty\r\n    fallback() external payable {}\r\n\r\n    function checkExist(uint256 tokenID) public view returns(bool)\r\n    {\r\n      return baseToken.exists(tokenID);\r\n    }\r\n\r\n    function getTokenAddress() public onlyOwner view returns(address)\r\n    {\r\n      return(baseTokenAddress);\r\n    }\r\n\r\n    function getBalance() public onlyOwner view returns(uint256) {\r\n      return address(this).balance;\r\n    }\r\n\r\n    function withdrawFunds() public onlyOwner {\r\n      uint256 balance = getBalance();\r\n      address owner = owner();\r\n      payable(owner).transfer(balance);\r\n    }\r\n\r\n    function checkTokenPrice(uint256 tokenID) public view returns(uint256){\r\n      return tokenPrices[tokenID];\r\n    }\r\n\r\n    function sendFee(address minter, string memory uri, uint256 id, uint256 newPrice) public reentrancyGuard payable{\r\n      require(checkExist(id) != true, \"Token already minted.\");\r\n      require(msg.value >=  initPrice, \"Must send 0.05 ETH minting fee.\");\r\n      (bool sent,) = address(this).call{value:msg.value}(\"\");\r\n      require(sent, \"Could not send ETH\");\r\n      paidForToken[msg.sender] = true;\r\n      mintNewPlot(minter, uri, id, newPrice);\r\n    }\r\n\r\n    function mintNewPlot(address recipient, string memory tokenURI, uint256 tokenID, uint256 newPrice) private returns(uint256)\r\n    {\r\n      require(paidForToken[recipient], \"Must pay minting fee.\");\r\n      require(checkExist(tokenID) != true, \"Token already minted, please purchase from current owner.\");\r\n      //must pay fee for each mint\r\n      paidForToken[recipient] = false;\r\n      tokenPrices[tokenID] = newPrice;\r\n      uint256 _newTokenID = baseToken.mintNFT(recipient, tokenURI, tokenID);\r\n      emit Minted(recipient, _newTokenID);\r\n      return _newTokenID;\r\n\r\n    }\r\n\r\n    function checkOwner(uint256 tokenID) public view returns(address){\r\n      address owner = baseToken.ownerOf(tokenID);\r\n      return owner;\r\n    }\r\n\r\n\r\n    function checkOperator(address owner) public onlyOwner view returns(bool)\r\n    {\r\n      return(baseToken.isApprovedForAll(owner, address(this)));\r\n    }\r\n\r\n    function purchaseToken(address payable from, address to, uint256 tokenID, uint256 newPrice) public payable\r\n    {\r\n      require(msg.sender != checkOwner(tokenID), \"You already own this plot.\");\r\n      require(msg.value >= tokenPrices[tokenID], \"Must send more ETH.\");\r\n      tokenPrices[tokenID] = newPrice;\r\n      (bool sent,) = from.call{value:msg.value}(\"\");\r\n      require(sent, \"Could not send ETH\");\r\n      baseToken.setApprovalForAll(to, address(this), true);\r\n      baseToken.safeTransferFrom(from, to, tokenID);\r\n    }\r\n\r\n    function checkBalance(address owner) public view returns(uint256)\r\n    {\r\n      return baseToken.balanceOf(owner);\r\n    }\r\n\r\n    function byIndex(address owner, uint256 index) public view returns(uint256)\r\n    {\r\n      return baseToken.tokenOfOwnerByIndex(owner, index);\r\n    }\r\n\r\n\r\n\r\n\r\n}\r\n",
  "sourcePath": "C:/Users/kerpr/Desktop/NFT-Wrapper-Contract/contracts/ERC721Wrapper.sol",
  "compiler": {
    "name": "solc",
    "version": "0.8.0+commit.c7dfd78e.Emscripten.clang"
  },
  "schemaVersion": "3.4.1",
  "updatedAt": "2021-11-21T21:21:07.470Z",
  "devdoc": {
    "kind": "dev",
    "methods": {
      "owner()": {
        "details": "Returns the address of the current owner."
      },
      "renounceOwnership()": {
        "details": "Leaves the contract without owner. It will not be possible to call `onlyOwner` functions anymore. Can only be called by the current owner. NOTE: Renouncing ownership will leave the contract without an owner, thereby removing any functionality that is only available to the owner."
      },
      "transferOwnership(address)": {
        "details": "Transfers ownership of the contract to a new account (`newOwner`). Can only be called by the current owner."
      }
    },
    "version": 1
  },
  "userdoc": {
    "kind": "user",
    "methods": {},
    "version": 1
  }
}