{
  "contractName": "ERC721Token",
  "abi": [
    {
      "inputs": [
        {
          "internalType": "uint256",
          "name": "cap",
          "type": "uint256"
        }
      ],
      "stateMutability": "nonpayable",
      "type": "constructor"
    },
    {
      "anonymous": false,
      "inputs": [
        {
          "indexed": true,
          "internalType": "address",
          "name": "owner",
          "type": "address"
        },
        {
          "indexed": true,
          "internalType": "address",
          "name": "approved",
          "type": "address"
        },
        {
          "indexed": true,
          "internalType": "uint256",
          "name": "tokenId",
          "type": "uint256"
        }
      ],
      "name": "Approval",
      "type": "event"
    },
    {
      "anonymous": false,
      "inputs": [
        {
          "indexed": true,
          "internalType": "address",
          "name": "owner",
          "type": "address"
        },
        {
          "indexed": true,
          "internalType": "address",
          "name": "operator",
          "type": "address"
        },
        {
          "indexed": false,
          "internalType": "bool",
          "name": "approved",
          "type": "bool"
        }
      ],
      "name": "ApprovalForAll",
      "type": "event"
    },
    {
      "anonymous": false,
      "inputs": [
        {
          "indexed": true,
          "internalType": "address",
          "name": "recipient",
          "type": "address"
        },
        {
          "indexed": false,
          "internalType": "uint256",
          "name": "tokenID",
          "type": "uint256"
        }
      ],
      "name": "Minted",
      "type": "event"
    },
    {
      "anonymous": false,
      "inputs": [
        {
          "indexed": true,
          "internalType": "address",
          "name": "previousOwner",
          "type": "address"
        },
        {
          "indexed": true,
          "internalType": "address",
          "name": "newOwner",
          "type": "address"
        }
      ],
      "name": "OwnershipTransferred",
      "type": "event"
    },
    {
      "anonymous": false,
      "inputs": [
        {
          "indexed": true,
          "internalType": "address",
          "name": "from",
          "type": "address"
        },
        {
          "indexed": true,
          "internalType": "address",
          "name": "to",
          "type": "address"
        },
        {
          "indexed": true,
          "internalType": "uint256",
          "name": "tokenId",
          "type": "uint256"
        }
      ],
      "name": "Transfer",
      "type": "event"
    },
    {
      "inputs": [
        {
          "internalType": "address",
          "name": "to",
          "type": "address"
        },
        {
          "internalType": "uint256",
          "name": "tokenId",
          "type": "uint256"
        }
      ],
      "name": "approve",
      "outputs": [],
      "stateMutability": "nonpayable",
      "type": "function"
    },
    {
      "inputs": [
        {
          "internalType": "address",
          "name": "owner",
          "type": "address"
        }
      ],
      "name": "balanceOf",
      "outputs": [
        {
          "internalType": "uint256",
          "name": "",
          "type": "uint256"
        }
      ],
      "stateMutability": "view",
      "type": "function"
    },
    {
      "inputs": [
        {
          "internalType": "uint256",
          "name": "tokenId",
          "type": "uint256"
        }
      ],
      "name": "getApproved",
      "outputs": [
        {
          "internalType": "address",
          "name": "",
          "type": "address"
        }
      ],
      "stateMutability": "view",
      "type": "function"
    },
    {
      "inputs": [
        {
          "internalType": "address",
          "name": "owner",
          "type": "address"
        },
        {
          "internalType": "address",
          "name": "operator",
          "type": "address"
        }
      ],
      "name": "isApprovedForAll",
      "outputs": [
        {
          "internalType": "bool",
          "name": "",
          "type": "bool"
        }
      ],
      "stateMutability": "view",
      "type": "function"
    },
    {
      "inputs": [],
      "name": "name",
      "outputs": [
        {
          "internalType": "string",
          "name": "",
          "type": "string"
        }
      ],
      "stateMutability": "view",
      "type": "function"
    },
    {
      "inputs": [],
      "name": "owner",
      "outputs": [
        {
          "internalType": "address",
          "name": "",
          "type": "address"
        }
      ],
      "stateMutability": "view",
      "type": "function"
    },
    {
      "inputs": [
        {
          "internalType": "uint256",
          "name": "tokenId",
          "type": "uint256"
        }
      ],
      "name": "ownerOf",
      "outputs": [
        {
          "internalType": "address",
          "name": "",
          "type": "address"
        }
      ],
      "stateMutability": "view",
      "type": "function"
    },
    {
      "inputs": [],
      "name": "renounceOwnership",
      "outputs": [],
      "stateMutability": "nonpayable",
      "type": "function"
    },
    {
      "inputs": [
        {
          "internalType": "address",
          "name": "from",
          "type": "address"
        },
        {
          "internalType": "address",
          "name": "to",
          "type": "address"
        },
        {
          "internalType": "uint256",
          "name": "tokenId",
          "type": "uint256"
        }
      ],
      "name": "safeTransferFrom",
      "outputs": [],
      "stateMutability": "nonpayable",
      "type": "function"
    },
    {
      "inputs": [
        {
          "internalType": "address",
          "name": "from",
          "type": "address"
        },
        {
          "internalType": "address",
          "name": "to",
          "type": "address"
        },
        {
          "internalType": "uint256",
          "name": "tokenId",
          "type": "uint256"
        },
        {
          "internalType": "bytes",
          "name": "_data",
          "type": "bytes"
        }
      ],
      "name": "safeTransferFrom",
      "outputs": [],
      "stateMutability": "nonpayable",
      "type": "function"
    },
    {
      "inputs": [
        {
          "internalType": "address",
          "name": "currentOwner",
          "type": "address"
        },
        {
          "internalType": "address",
          "name": "operator",
          "type": "address"
        },
        {
          "internalType": "bool",
          "name": "approved",
          "type": "bool"
        }
      ],
      "name": "setApprovalForAll",
      "outputs": [],
      "stateMutability": "nonpayable",
      "type": "function"
    },
    {
      "inputs": [],
      "name": "symbol",
      "outputs": [
        {
          "internalType": "string",
          "name": "",
          "type": "string"
        }
      ],
      "stateMutability": "view",
      "type": "function"
    },
    {
      "inputs": [
        {
          "internalType": "uint256",
          "name": "index",
          "type": "uint256"
        }
      ],
      "name": "tokenByIndex",
      "outputs": [
        {
          "internalType": "uint256",
          "name": "",
          "type": "uint256"
        }
      ],
      "stateMutability": "view",
      "type": "function"
    },
    {
      "inputs": [
        {
          "internalType": "address",
          "name": "owner",
          "type": "address"
        },
        {
          "internalType": "uint256",
          "name": "index",
          "type": "uint256"
        }
      ],
      "name": "tokenOfOwnerByIndex",
      "outputs": [
        {
          "internalType": "uint256",
          "name": "",
          "type": "uint256"
        }
      ],
      "stateMutability": "view",
      "type": "function"
    },
    {
      "inputs": [],
      "name": "totalSupply",
      "outputs": [
        {
          "internalType": "uint256",
          "name": "",
          "type": "uint256"
        }
      ],
      "stateMutability": "view",
      "type": "function"
    },
    {
      "inputs": [
        {
          "internalType": "address",
          "name": "from",
          "type": "address"
        },
        {
          "internalType": "address",
          "name": "to",
          "type": "address"
        },
        {
          "internalType": "uint256",
          "name": "tokenId",
          "type": "uint256"
        }
      ],
      "name": "transferFrom",
      "outputs": [],
      "stateMutability": "nonpayable",
      "type": "function"
    },
    {
      "inputs": [
        {
          "internalType": "address",
          "name": "newOwner",
          "type": "address"
        }
      ],
      "name": "transferOwnership",
      "outputs": [],
      "stateMutability": "nonpayable",
      "type": "function"
    },
    {
      "inputs": [
        {
          "internalType": "address",
          "name": "recipient",
          "type": "address"
        },
        {
          "internalType": "address",
          "name": "WrapperContract",
          "type": "address"
        },
        {
          "internalType": "string",
          "name": "uri",
          "type": "string"
        },
        {
          "internalType": "uint256",
          "name": "tokenID",
          "type": "uint256"
        },
        {
          "internalType": "uint256",
          "name": "newPrice",
          "type": "uint256"
        }
      ],
      "name": "mintNFT",
      "outputs": [
        {
          "internalType": "uint256",
          "name": "",
          "type": "uint256"
        }
      ],
      "stateMutability": "nonpayable",
      "type": "function"
    },
    {
      "inputs": [
        {
          "internalType": "uint256",
          "name": "plotID",
          "type": "uint256"
        }
      ],
      "name": "exists",
      "outputs": [
        {
          "internalType": "bool",
          "name": "",
          "type": "bool"
        }
      ],
      "stateMutability": "view",
      "type": "function"
    },
    {
      "inputs": [],
      "name": "checkCap",
      "outputs": [
        {
          "internalType": "uint256",
          "name": "",
          "type": "uint256"
        }
      ],
      "stateMutability": "view",
      "type": "function"
    },
    {
      "inputs": [
        {
          "internalType": "uint256",
          "name": "tokenId",
          "type": "uint256"
        }
      ],
      "name": "tokenURI",
      "outputs": [
        {
          "internalType": "string",
          "name": "",
          "type": "string"
        }
      ],
      "stateMutability": "view",
      "type": "function"
    },
    {
      "inputs": [
        {
          "internalType": "bytes4",
          "name": "interfaceId",
          "type": "bytes4"
        }
      ],
      "name": "supportsInterface",
      "outputs": [
        {
          "internalType": "bool",
          "name": "",
          "type": "bool"
        }
      ],
      "stateMutability": "view",
      "type": "function"
    },
    {
      "inputs": [
        {
          "internalType": "address",
          "name": "owner",
          "type": "address"
        }
      ],
      "name": "enumerateTokens",
      "outputs": [
        {
          "internalType": "uint256[]",
          "name": "",
          "type": "uint256[]"
        }
      ],
      "stateMutability": "view",
      "type": "function"
    }
  ],
  "bytecode": "0x60806040523480156200001157600080fd5b50604051620040f4380380620040f48339818101604052810190620000379190620002de565b6040518060400160405280600981526020017f4d617273546f6b656e00000000000000000000000000000000000000000000008152506040518060400160405280600481526020017f4d41525300000000000000000000000000000000000000000000000000000000815250620000c3620000b76200014b60201b60201c565b6200015360201b60201c565b8160019080519060200190620000db92919062000217565b508060029080519060200190620000f492919062000217565b505050600081116200013d576040517f08c379a000000000000000000000000000000000000000000000000000000000815260040162000134906200034c565b60405180910390fd5b80600d819055505062000408565b600033905090565b60008060009054906101000a900473ffffffffffffffffffffffffffffffffffffffff169050816000806101000a81548173ffffffffffffffffffffffffffffffffffffffff021916908373ffffffffffffffffffffffffffffffffffffffff1602179055508173ffffffffffffffffffffffffffffffffffffffff168173ffffffffffffffffffffffffffffffffffffffff167f8be0079c531659141344cd1fd0a4f28419497f9722a3daafe3b4186f6b6457e060405160405180910390a35050565b828054620002259062000389565b90600052602060002090601f01602090048101928262000249576000855562000295565b82601f106200026457805160ff191683800117855562000295565b8280016001018555821562000295579182015b828111156200029457825182559160200191906001019062000277565b5b509050620002a49190620002a8565b5090565b5b80821115620002c3576000816000905550600101620002a9565b5090565b600081519050620002d881620003ee565b92915050565b600060208284031215620002f157600080fd5b60006200030184828501620002c7565b91505092915050565b600062000319601f836200036e565b91507f4d617273546f6b656e3a20636170206d757374206265206e6f6e2d7a65726f006000830152602082019050919050565b6000602082019050818103600083015262000367816200030a565b9050919050565b600082825260208201905092915050565b6000819050919050565b60006002820490506001821680620003a257607f821691505b60208210811415620003b957620003b8620003bf565b5b50919050565b7f4e487b7100000000000000000000000000000000000000000000000000000000600052602260045260246000fd5b620003f9816200037f565b81146200040557600080fd5b50565b613cdc80620004186000396000f3fe608060405234801561001057600080fd5b506004361061014d5760003560e01c80634f6ccce7116100c3578063b88d4fde1161007c578063b88d4fde146103c4578063bbd00368146103e0578063c13982ee14610410578063c87b56dd1461042e578063e985e9c51461045e578063f2fde38b1461048e5761014d565b80634f6ccce7146102ee5780636352211e1461031e57806370a082311461034e578063715018a61461037e5780638da5cb5b1461038857806395d89b41146103a65761014d565b806318160ddd1161011557806318160ddd1461021c57806323b872dd1461023a5780632f745c5914610256578063367605ca1461028657806342842e0e146102a25780634f558e79146102be5761014d565b806301ffc9a71461015257806306fdde0314610182578063081812fc146101a0578063095ea7b3146101d057806315cb0436146101ec575b600080fd5b61016c60048036038101906101679190612a92565b6104aa565b604051610179919061353b565b60405180910390f35b61018a6104bc565b6040516101979190613556565b60405180910390f35b6101ba60048036038101906101b59190612ae4565b61054e565b6040516101c791906134b2565b60405180910390f35b6101ea60048036038101906101e59190612a56565b6105d3565b005b61020660048036038101906102019190612849565b6106eb565b6040516102139190613519565b60405180910390f35b610224610773565b6040516102319190613838565b60405180910390f35b610254600480360381019061024f919061298c565b610780565b005b610270600480360381019061026b9190612a56565b6107e0565b60405161027d9190613838565b60405180910390f35b6102a0600480360381019061029b91906128ae565b610885565b005b6102bc60048036038101906102b7919061298c565b6109ff565b005b6102d860048036038101906102d39190612ae4565b610a1f565b6040516102e5919061353b565b60405180910390f35b61030860048036038101906103039190612ae4565b610aad565b6040516103159190613838565b60405180910390f35b61033860048036038101906103339190612ae4565b610b44565b60405161034591906134b2565b60405180910390f35b61036860048036038101906103639190612849565b610bf6565b6040516103759190613838565b60405180910390f35b610386610cae565b005b610390610d36565b60405161039d91906134b2565b60405180910390f35b6103ae610d5f565b6040516103bb9190613556565b60405180910390f35b6103de60048036038101906103d991906129db565b610df1565b005b6103fa60048036038101906103f591906128fd565b610e53565b6040516104079190613838565b60405180910390f35b610418611015565b6040516104259190613838565b60405180910390f35b61044860048036038101906104439190612ae4565b61109b565b6040516104559190613556565b60405180910390f35b61047860048036038101906104739190612872565b6110ad565b604051610485919061353b565b60405180910390f35b6104a860048036038101906104a39190612849565b611141565b005b60006104b582611239565b9050919050565b6060600180546104cb90613ad1565b80601f01602080910402602001604051908101604052809291908181526020018280546104f790613ad1565b80156105445780601f1061051957610100808354040283529160200191610544565b820191906000526020600020905b81548152906001019060200180831161052757829003601f168201915b5050505050905090565b6000610559826112b3565b610598576040517f08c379a000000000000000000000000000000000000000000000000000000000815260040161058f90613758565b60405180910390fd5b6005600083815260200190815260200160002060009054906101000a900473ffffffffffffffffffffffffffffffffffffffff169050919050565b60006105de82610b44565b90508073ffffffffffffffffffffffffffffffffffffffff168373ffffffffffffffffffffffffffffffffffffffff16141561064f576040517f08c379a0000000000000000000000000000000000000000000000000000000008152600401610646906137d8565b60405180910390fd5b8073ffffffffffffffffffffffffffffffffffffffff1661066e61131f565b73ffffffffffffffffffffffffffffffffffffffff16148061069d575061069c8161069761131f565b6110ad565b5b6106dc576040517f08c379a00000000000000000000000000000000000000000000000000000000081526004016106d390613678565b60405180910390fd5b6106e68383611327565b505050565b60608060006106f984610bf6565b905060005b818110156107685761071085826107e0565b838281518110610749577f4e487b7100000000000000000000000000000000000000000000000000000000600052603260045260246000fd5b602002602001018181525050808061076090613b03565b9150506106fe565b508192505050919050565b6000600a80549050905090565b61079161078b61131f565b826113e0565b6107d0576040517f08c379a00000000000000000000000000000000000000000000000000000000081526004016107c7906137f8565b60405180910390fd5b6107db8383836114be565b505050565b60006107eb83610bf6565b821061082c576040517f08c379a0000000000000000000000000000000000000000000000000000000008152600401610823906135b8565b60405180910390fd5b600860008473ffffffffffffffffffffffffffffffffffffffff1673ffffffffffffffffffffffffffffffffffffffff168152602001908152602001600020600083815260200190815260200160002054905092915050565b61088d61131f565b73ffffffffffffffffffffffffffffffffffffffff166108ab610d36565b73ffffffffffffffffffffffffffffffffffffffff1614610901576040517f08c379a00000000000000000000000000000000000000000000000000000000081526004016108f890613778565b60405180910390fd5b80600660008573ffffffffffffffffffffffffffffffffffffffff1673ffffffffffffffffffffffffffffffffffffffff16815260200190815260200160002060008473ffffffffffffffffffffffffffffffffffffffff1673ffffffffffffffffffffffffffffffffffffffff16815260200190815260200160002060006101000a81548160ff0219169083151502179055508173ffffffffffffffffffffffffffffffffffffffff168373ffffffffffffffffffffffffffffffffffffffff167f17307eab39ab6107e8899845ad3d59bd9653f200f220920489ca2b5937696c31836040516109f2919061353b565b60405180910390a3505050565b610a1a83838360405180602001604052806000815250610df1565b505050565b6000610a2961131f565b73ffffffffffffffffffffffffffffffffffffffff16610a47610d36565b73ffffffffffffffffffffffffffffffffffffffff1614610a9d576040517f08c379a0000000000000000000000000000000000000000000000000000000008152600401610a9490613778565b60405180910390fd5b610aa6826112b3565b9050919050565b6000610ab7610773565b8210610af8576040517f08c379a0000000000000000000000000000000000000000000000000000000008152600401610aef90613818565b60405180910390fd5b600a8281548110610b32577f4e487b7100000000000000000000000000000000000000000000000000000000600052603260045260246000fd5b90600052602060002001549050919050565b6000806003600084815260200190815260200160002060009054906101000a900473ffffffffffffffffffffffffffffffffffffffff169050600073ffffffffffffffffffffffffffffffffffffffff168173ffffffffffffffffffffffffffffffffffffffff161415610bed576040517f08c379a0000000000000000000000000000000000000000000000000000000008152600401610be4906136b8565b60405180910390fd5b80915050919050565b60008073ffffffffffffffffffffffffffffffffffffffff168273ffffffffffffffffffffffffffffffffffffffff161415610c67576040517f08c379a0000000000000000000000000000000000000000000000000000000008152600401610c5e90613698565b60405180910390fd5b600460008373ffffffffffffffffffffffffffffffffffffffff1673ffffffffffffffffffffffffffffffffffffffff168152602001908152602001600020549050919050565b610cb661131f565b73ffffffffffffffffffffffffffffffffffffffff16610cd4610d36565b73ffffffffffffffffffffffffffffffffffffffff1614610d2a576040517f08c379a0000000000000000000000000000000000000000000000000000000008152600401610d2190613778565b60405180910390fd5b610d34600061171a565b565b60008060009054906101000a900473ffffffffffffffffffffffffffffffffffffffff16905090565b606060028054610d6e90613ad1565b80601f0160208091040260200160405190810160405280929190818152602001828054610d9a90613ad1565b8015610de75780601f10610dbc57610100808354040283529160200191610de7565b820191906000526020600020905b815481529060010190602001808311610dca57829003601f168201915b5050505050905090565b610e02610dfc61131f565b836113e0565b610e41576040517f08c379a0000000000000000000000000000000000000000000000000000000008152600401610e38906137f8565b60405180910390fd5b610e4d848484846117de565b50505050565b6000610e5d61131f565b73ffffffffffffffffffffffffffffffffffffffff16610e7b610d36565b73ffffffffffffffffffffffffffffffffffffffff1614610ed1576040517f08c379a0000000000000000000000000000000000000000000000000000000008152600401610ec890613778565b60405180910390fd5b60011515610ede846112b3565b15151415610f21576040517f08c379a0000000000000000000000000000000000000000000000000000000008152600401610f1890613578565b60405180910390fd5b600083118015610f335750600d548311155b610f72576040517f08c379a0000000000000000000000000000000000000000000000000000000008152600401610f6990613598565b60405180910390fd5b600d54610f7f600c61183a565b1115610fc0576040517f08c379a0000000000000000000000000000000000000000000000000000000008152600401610fb7906136f8565b60405180910390fd5b610fca600c611848565b610fd4868461185e565b610fde838561187c565b610ff186610fea610d36565b6001610885565b81600e60008581526020019081526020016000208190555082905095945050505050565b600061101f61131f565b73ffffffffffffffffffffffffffffffffffffffff1661103d610d36565b73ffffffffffffffffffffffffffffffffffffffff1614611093576040517f08c379a000000000000000000000000000000000000000000000000000000000815260040161108a90613778565b60405180910390fd5b600d54905090565b60606110a6826118f0565b9050919050565b6000600660008473ffffffffffffffffffffffffffffffffffffffff1673ffffffffffffffffffffffffffffffffffffffff16815260200190815260200160002060008373ffffffffffffffffffffffffffffffffffffffff1673ffffffffffffffffffffffffffffffffffffffff16815260200190815260200160002060009054906101000a900460ff16905092915050565b61114961131f565b73ffffffffffffffffffffffffffffffffffffffff16611167610d36565b73ffffffffffffffffffffffffffffffffffffffff16146111bd576040517f08c379a00000000000000000000000000000000000000000000000000000000081526004016111b490613778565b60405180910390fd5b600073ffffffffffffffffffffffffffffffffffffffff168173ffffffffffffffffffffffffffffffffffffffff16141561122d576040517f08c379a0000000000000000000000000000000000000000000000000000000008152600401611224906135f8565b60405180910390fd5b6112368161171a565b50565b60007f780e9d63000000000000000000000000000000000000000000000000000000007bffffffffffffffffffffffffffffffffffffffffffffffffffffffff1916827bffffffffffffffffffffffffffffffffffffffffffffffffffffffff191614806112ac57506112ab82611a42565b5b9050919050565b60008073ffffffffffffffffffffffffffffffffffffffff166003600084815260200190815260200160002060009054906101000a900473ffffffffffffffffffffffffffffffffffffffff1673ffffffffffffffffffffffffffffffffffffffff1614159050919050565b600033905090565b816005600083815260200190815260200160002060006101000a81548173ffffffffffffffffffffffffffffffffffffffff021916908373ffffffffffffffffffffffffffffffffffffffff160217905550808273ffffffffffffffffffffffffffffffffffffffff1661139a83610b44565b73ffffffffffffffffffffffffffffffffffffffff167f8c5be1e5ebec7d5bd14f71427d1e84f3dd0314c0f7b2291e5b200ac8c7c3b92560405160405180910390a45050565b60006113eb826112b3565b61142a576040517f08c379a000000000000000000000000000000000000000000000000000000000815260040161142190613658565b60405180910390fd5b600061143583610b44565b90508073ffffffffffffffffffffffffffffffffffffffff168473ffffffffffffffffffffffffffffffffffffffff1614806114a457508373ffffffffffffffffffffffffffffffffffffffff1661148c8461054e565b73ffffffffffffffffffffffffffffffffffffffff16145b806114b557506114b481856110ad565b5b91505092915050565b8273ffffffffffffffffffffffffffffffffffffffff166114de82610b44565b73ffffffffffffffffffffffffffffffffffffffff1614611534576040517f08c379a000000000000000000000000000000000000000000000000000000000815260040161152b90613798565b60405180910390fd5b600073ffffffffffffffffffffffffffffffffffffffff168273ffffffffffffffffffffffffffffffffffffffff1614156115a4576040517f08c379a000000000000000000000000000000000000000000000000000000000815260040161159b90613638565b60405180910390fd5b6115af838383611b24565b6115ba600082611327565b6001600460008573ffffffffffffffffffffffffffffffffffffffff1673ffffffffffffffffffffffffffffffffffffffff168152602001908152602001600020600082825461160a91906139e7565b925050819055506001600460008473ffffffffffffffffffffffffffffffffffffffff1673ffffffffffffffffffffffffffffffffffffffff16815260200190815260200160002060008282546116619190613960565b92505081905550816003600083815260200190815260200160002060006101000a81548173ffffffffffffffffffffffffffffffffffffffff021916908373ffffffffffffffffffffffffffffffffffffffff160217905550808273ffffffffffffffffffffffffffffffffffffffff168473ffffffffffffffffffffffffffffffffffffffff167fddf252ad1be2c89b69c2b068fc378daa952ba7f163c4a11628f55a4df523b3ef60405160405180910390a4505050565b60008060009054906101000a900473ffffffffffffffffffffffffffffffffffffffff169050816000806101000a81548173ffffffffffffffffffffffffffffffffffffffff021916908373ffffffffffffffffffffffffffffffffffffffff1602179055508173ffffffffffffffffffffffffffffffffffffffff168173ffffffffffffffffffffffffffffffffffffffff167f8be0079c531659141344cd1fd0a4f28419497f9722a3daafe3b4186f6b6457e060405160405180910390a35050565b6117e98484846114be565b6117f584848484611b34565b611834576040517f08c379a000000000000000000000000000000000000000000000000000000000815260040161182b906135d8565b60405180910390fd5b50505050565b600081600001549050919050565b6001816000016000828254019250508190555050565b611878828260405180602001604052806000815250611ccb565b5050565b611885826112b3565b6118c4576040517f08c379a00000000000000000000000000000000000000000000000000000000081526004016118bb906136d8565b60405180910390fd5b806007600084815260200190815260200160002090805190602001906118eb92919061266d565b505050565b60606118fb826112b3565b61193a576040517f08c379a000000000000000000000000000000000000000000000000000000000815260040161193190613738565b60405180910390fd5b600060076000848152602001908152602001600020805461195a90613ad1565b80601f016020809104026020016040519081016040528092919081815260200182805461198690613ad1565b80156119d35780601f106119a8576101008083540402835291602001916119d3565b820191906000526020600020905b8154815290600101906020018083116119b657829003601f168201915b5050505050905060006119e4611d26565b90506000815114156119fa578192505050611a3d565b600082511115611a2f578082604051602001611a1792919061348e565b60405160208183030381529060405292505050611a3d565b611a3884611d3d565b925050505b919050565b60007f14f6e962000000000000000000000000000000000000000000000000000000007bffffffffffffffffffffffffffffffffffffffffffffffffffffffff1916827bffffffffffffffffffffffffffffffffffffffffffffffffffffffff19161480611b0d57507f5b5e139f000000000000000000000000000000000000000000000000000000007bffffffffffffffffffffffffffffffffffffffffffffffffffffffff1916827bffffffffffffffffffffffffffffffffffffffffffffffffffffffff1916145b80611b1d5750611b1c82611de4565b5b9050919050565b611b2f838383611e4e565b505050565b6000611b558473ffffffffffffffffffffffffffffffffffffffff16611f62565b15611cbe578373ffffffffffffffffffffffffffffffffffffffff1663150b7a02611b7e61131f565b8786866040518563ffffffff1660e01b8152600401611ba094939291906134cd565b602060405180830381600087803b158015611bba57600080fd5b505af1925050508015611beb57506040513d601f19601f82011682018060405250810190611be89190612abb565b60015b611c6e573d8060008114611c1b576040519150601f19603f3d011682016040523d82523d6000602084013e611c20565b606091505b50600081511415611c66576040517f08c379a0000000000000000000000000000000000000000000000000000000008152600401611c5d906135d8565b60405180910390fd5b805181602001fd5b63150b7a0260e01b7bffffffffffffffffffffffffffffffffffffffffffffffffffffffff1916817bffffffffffffffffffffffffffffffffffffffffffffffffffffffff191614915050611cc3565b600190505b949350505050565b611cd58383611f75565b611ce26000848484611b34565b611d21576040517f08c379a0000000000000000000000000000000000000000000000000000000008152600401611d18906135d8565b60405180910390fd5b505050565b606060405180602001604052806000815250905090565b6060611d48826112b3565b611d87576040517f08c379a0000000000000000000000000000000000000000000000000000000008152600401611d7e906137b8565b60405180910390fd5b6000611d91611d26565b90506000815111611db15760405180602001604052806000815250611ddc565b80611dbb84612143565b604051602001611dcc92919061348e565b6040516020818303038152906040525b915050919050565b60007f01ffc9a7000000000000000000000000000000000000000000000000000000007bffffffffffffffffffffffffffffffffffffffffffffffffffffffff1916827bffffffffffffffffffffffffffffffffffffffffffffffffffffffff1916149050919050565b611e598383836122f0565b600073ffffffffffffffffffffffffffffffffffffffff168373ffffffffffffffffffffffffffffffffffffffff161415611e9c57611e97816122f5565b611edb565b8173ffffffffffffffffffffffffffffffffffffffff168373ffffffffffffffffffffffffffffffffffffffff1614611eda57611ed9838261233e565b5b5b600073ffffffffffffffffffffffffffffffffffffffff168273ffffffffffffffffffffffffffffffffffffffff161415611f1e57611f19816124ab565b611f5d565b8273ffffffffffffffffffffffffffffffffffffffff168273ffffffffffffffffffffffffffffffffffffffff1614611f5c57611f5b82826125ee565b5b5b505050565b600080823b905060008111915050919050565b600073ffffffffffffffffffffffffffffffffffffffff168273ffffffffffffffffffffffffffffffffffffffff161415611fe5576040517f08c379a0000000000000000000000000000000000000000000000000000000008152600401611fdc90613718565b60405180910390fd5b611fee816112b3565b1561202e576040517f08c379a000000000000000000000000000000000000000000000000000000000815260040161202590613618565b60405180910390fd5b61203a60008383611b24565b6001600460008473ffffffffffffffffffffffffffffffffffffffff1673ffffffffffffffffffffffffffffffffffffffff168152602001908152602001600020600082825461208a9190613960565b92505081905550816003600083815260200190815260200160002060006101000a81548173ffffffffffffffffffffffffffffffffffffffff021916908373ffffffffffffffffffffffffffffffffffffffff160217905550808273ffffffffffffffffffffffffffffffffffffffff16600073ffffffffffffffffffffffffffffffffffffffff167fddf252ad1be2c89b69c2b068fc378daa952ba7f163c4a11628f55a4df523b3ef60405160405180910390a45050565b6060600082141561218b576040518060400160405280600181526020017f300000000000000000000000000000000000000000000000000000000000000081525090506122eb565b600082905060005b600082146121bd5780806121a690613b03565b915050600a826121b691906139b6565b9150612193565b60008167ffffffffffffffff8111156121ff577f4e487b7100000000000000000000000000000000000000000000000000000000600052604160045260246000fd5b6040519080825280601f01601f1916602001820160405280156122315781602001600182028036833780820191505090505b5090505b600085146122e45760018261224a91906139e7565b9150600a856122599190613b4c565b60306122659190613960565b60f81b8183815181106122a1577f4e487b7100000000000000000000000000000000000000000000000000000000600052603260045260246000fd5b60200101907effffffffffffffffffffffffffffffffffffffffffffffffffffffffffffff1916908160001a905350600a856122dd91906139b6565b9450612235565b8093505050505b919050565b505050565b600a80549050600b600083815260200190815260200160002081905550600a81908060018154018082558091505060019003906000526020600020016000909190919091505550565b6000600161234b84610bf6565b61235591906139e7565b905060006009600084815260200190815260200160002054905081811461243a576000600860008673ffffffffffffffffffffffffffffffffffffffff1673ffffffffffffffffffffffffffffffffffffffff168152602001908152602001600020600084815260200190815260200160002054905080600860008773ffffffffffffffffffffffffffffffffffffffff1673ffffffffffffffffffffffffffffffffffffffff168152602001908152602001600020600084815260200190815260200160002081905550816009600083815260200190815260200160002081905550505b6009600084815260200190815260200160002060009055600860008573ffffffffffffffffffffffffffffffffffffffff1673ffffffffffffffffffffffffffffffffffffffff16815260200190815260200160002060008381526020019081526020016000206000905550505050565b60006001600a805490506124bf91906139e7565b90506000600b60008481526020019081526020016000205490506000600a8381548110612515577f4e487b7100000000000000000000000000000000000000000000000000000000600052603260045260246000fd5b9060005260206000200154905080600a838154811061255d577f4e487b7100000000000000000000000000000000000000000000000000000000600052603260045260246000fd5b906000526020600020018190555081600b600083815260200190815260200160002081905550600b600085815260200190815260200160002060009055600a8054806125d2577f4e487b7100000000000000000000000000000000000000000000000000000000600052603160045260246000fd5b6001900381819060005260206000200160009055905550505050565b60006125f983610bf6565b905081600860008573ffffffffffffffffffffffffffffffffffffffff1673ffffffffffffffffffffffffffffffffffffffff168152602001908152602001600020600083815260200190815260200160002081905550806009600084815260200190815260200160002081905550505050565b82805461267990613ad1565b90600052602060002090601f01602090048101928261269b57600085556126e2565b82601f106126b457805160ff19168380011785556126e2565b828001600101855582156126e2579182015b828111156126e15782518255916020019190600101906126c6565b5b5090506126ef91906126f3565b5090565b5b8082111561270c5760008160009055506001016126f4565b5090565b600061272361271e84613884565b613853565b90508281526020810184848401111561273b57600080fd5b612746848285613a8f565b509392505050565b600061276161275c846138b4565b613853565b90508281526020810184848401111561277957600080fd5b612784848285613a8f565b509392505050565b60008135905061279b81613c4a565b92915050565b6000813590506127b081613c61565b92915050565b6000813590506127c581613c78565b92915050565b6000815190506127da81613c78565b92915050565b600082601f8301126127f157600080fd5b8135612801848260208601612710565b91505092915050565b600082601f83011261281b57600080fd5b813561282b84826020860161274e565b91505092915050565b60008135905061284381613c8f565b92915050565b60006020828403121561285b57600080fd5b60006128698482850161278c565b91505092915050565b6000806040838503121561288557600080fd5b60006128938582860161278c565b92505060206128a48582860161278c565b9150509250929050565b6000806000606084860312156128c357600080fd5b60006128d18682870161278c565b93505060206128e28682870161278c565b92505060406128f3868287016127a1565b9150509250925092565b600080600080600060a0868803121561291557600080fd5b60006129238882890161278c565b95505060206129348882890161278c565b945050604086013567ffffffffffffffff81111561295157600080fd5b61295d8882890161280a565b935050606061296e88828901612834565b925050608061297f88828901612834565b9150509295509295909350565b6000806000606084860312156129a157600080fd5b60006129af8682870161278c565b93505060206129c08682870161278c565b92505060406129d186828701612834565b9150509250925092565b600080600080608085870312156129f157600080fd5b60006129ff8782880161278c565b9450506020612a108782880161278c565b9350506040612a2187828801612834565b925050606085013567ffffffffffffffff811115612a3e57600080fd5b612a4a878288016127e0565b91505092959194509250565b60008060408385031215612a6957600080fd5b6000612a778582860161278c565b9250506020612a8885828601612834565b9150509250929050565b600060208284031215612aa457600080fd5b6000612ab2848285016127b6565b91505092915050565b600060208284031215612acd57600080fd5b6000612adb848285016127cb565b91505092915050565b600060208284031215612af657600080fd5b6000612b0484828501612834565b91505092915050565b6000612b198383613470565b60208301905092915050565b612b2e81613a1b565b82525050565b6000612b3f826138f4565b612b498185613922565b9350612b54836138e4565b8060005b83811015612b85578151612b6c8882612b0d565b9750612b7783613915565b925050600181019050612b58565b5085935050505092915050565b612b9b81613a2d565b82525050565b6000612bac826138ff565b612bb68185613933565b9350612bc6818560208601613a9e565b612bcf81613c39565b840191505092915050565b6000612be58261390a565b612bef8185613944565b9350612bff818560208601613a9e565b612c0881613c39565b840191505092915050565b6000612c1e8261390a565b612c288185613955565b9350612c38818560208601613a9e565b80840191505092915050565b6000612c51602a83613944565b91507f546f6b656e2063616e6e6f74206265206d696e7465642c20706c6f7420616c7260008301527f65616479206f776e6564000000000000000000000000000000000000000000006020830152604082019050919050565b6000612cb7603183613944565b91507f546f6b656e2063616e6e6f74206265206d696e7465642e204f7574206f66206260008301527f6f756e647320666f7220706c6f7449442e0000000000000000000000000000006020830152604082019050919050565b6000612d1d602b83613944565b91507f455243373231456e756d657261626c653a206f776e657220696e646578206f7560008301527f74206f6620626f756e64730000000000000000000000000000000000000000006020830152604082019050919050565b6000612d83603283613944565b91507f4552433732313a207472616e7366657220746f206e6f6e20455243373231526560008301527f63656976657220696d706c656d656e74657200000000000000000000000000006020830152604082019050919050565b6000612de9602683613944565b91507f4f776e61626c653a206e6577206f776e657220697320746865207a65726f206160008301527f64647265737300000000000000000000000000000000000000000000000000006020830152604082019050919050565b6000612e4f601c83613944565b91507f4552433732313a20746f6b656e20616c7265616479206d696e746564000000006000830152602082019050919050565b6000612e8f602483613944565b91507f4552433732313a207472616e7366657220746f20746865207a65726f2061646460008301527f72657373000000000000000000000000000000000000000000000000000000006020830152604082019050919050565b6000612ef5602c83613944565b91507f4552433732313a206f70657261746f7220717565727920666f72206e6f6e657860008301527f697374656e7420746f6b656e00000000000000000000000000000000000000006020830152604082019050919050565b6000612f5b603883613944565b91507f4552433732313a20617070726f76652063616c6c6572206973206e6f74206f7760008301527f6e6572206e6f7220617070726f76656420666f7220616c6c00000000000000006020830152604082019050919050565b6000612fc1602a83613944565b91507f4552433732313a2062616c616e636520717565727920666f7220746865207a6560008301527f726f2061646472657373000000000000000000000000000000000000000000006020830152604082019050919050565b6000613027602983613944565b91507f4552433732313a206f776e657220717565727920666f72206e6f6e657869737460008301527f656e7420746f6b656e00000000000000000000000000000000000000000000006020830152604082019050919050565b600061308d602e83613944565b91507f45524337323155524953746f726167653a2055524920736574206f66206e6f6e60008301527f6578697374656e7420746f6b656e0000000000000000000000000000000000006020830152604082019050919050565b60006130f3601e83613944565b91507f43616e6e6f74206d696e7420746f6b656e2c20636170207265616368656400006000830152602082019050919050565b6000613133602083613944565b91507f4552433732313a206d696e7420746f20746865207a65726f20616464726573736000830152602082019050919050565b6000613173603183613944565b91507f45524337323155524953746f726167653a2055524920717565727920666f722060008301527f6e6f6e6578697374656e7420746f6b656e0000000000000000000000000000006020830152604082019050919050565b60006131d9602c83613944565b91507f4552433732313a20617070726f76656420717565727920666f72206e6f6e657860008301527f697374656e7420746f6b656e00000000000000000000000000000000000000006020830152604082019050919050565b600061323f602083613944565b91507f4f776e61626c653a2063616c6c6572206973206e6f7420746865206f776e65726000830152602082019050919050565b600061327f602983613944565b91507f4552433732313a207472616e73666572206f6620746f6b656e2074686174206960008301527f73206e6f74206f776e00000000000000000000000000000000000000000000006020830152604082019050919050565b60006132e5602f83613944565b91507f4552433732314d657461646174613a2055524920717565727920666f72206e6f60008301527f6e6578697374656e7420746f6b656e00000000000000000000000000000000006020830152604082019050919050565b600061334b602183613944565b91507f4552433732313a20617070726f76616c20746f2063757272656e74206f776e6560008301527f72000000000000000000000000000000000000000000000000000000000000006020830152604082019050919050565b60006133b1603183613944565b91507f4552433732313a207472616e736665722063616c6c6572206973206e6f74206f60008301527f776e6572206e6f7220617070726f7665640000000000000000000000000000006020830152604082019050919050565b6000613417602c83613944565b91507f455243373231456e756d657261626c653a20676c6f62616c20696e646578206f60008301527f7574206f6620626f756e647300000000000000000000000000000000000000006020830152604082019050919050565b61347981613a85565b82525050565b61348881613a85565b82525050565b600061349a8285612c13565b91506134a68284612c13565b91508190509392505050565b60006020820190506134c76000830184612b25565b92915050565b60006080820190506134e26000830187612b25565b6134ef6020830186612b25565b6134fc604083018561347f565b818103606083015261350e8184612ba1565b905095945050505050565b600060208201905081810360008301526135338184612b34565b905092915050565b60006020820190506135506000830184612b92565b92915050565b600060208201905081810360008301526135708184612bda565b905092915050565b6000602082019050818103600083015261359181612c44565b9050919050565b600060208201905081810360008301526135b181612caa565b9050919050565b600060208201905081810360008301526135d181612d10565b9050919050565b600060208201905081810360008301526135f181612d76565b9050919050565b6000602082019050818103600083015261361181612ddc565b9050919050565b6000602082019050818103600083015261363181612e42565b9050919050565b6000602082019050818103600083015261365181612e82565b9050919050565b6000602082019050818103600083015261367181612ee8565b9050919050565b6000602082019050818103600083015261369181612f4e565b9050919050565b600060208201905081810360008301526136b181612fb4565b9050919050565b600060208201905081810360008301526136d18161301a565b9050919050565b600060208201905081810360008301526136f181613080565b9050919050565b60006020820190508181036000830152613711816130e6565b9050919050565b6000602082019050818103600083015261373181613126565b9050919050565b6000602082019050818103600083015261375181613166565b9050919050565b60006020820190508181036000830152613771816131cc565b9050919050565b6000602082019050818103600083015261379181613232565b9050919050565b600060208201905081810360008301526137b181613272565b9050919050565b600060208201905081810360008301526137d1816132d8565b9050919050565b600060208201905081810360008301526137f18161333e565b9050919050565b60006020820190508181036000830152613811816133a4565b9050919050565b600060208201905081810360008301526138318161340a565b9050919050565b600060208201905061384d600083018461347f565b92915050565b6000604051905081810181811067ffffffffffffffff8211171561387a57613879613c0a565b5b8060405250919050565b600067ffffffffffffffff82111561389f5761389e613c0a565b5b601f19601f8301169050602081019050919050565b600067ffffffffffffffff8211156138cf576138ce613c0a565b5b601f19601f8301169050602081019050919050565b6000819050602082019050919050565b600081519050919050565b600081519050919050565b600081519050919050565b6000602082019050919050565b600082825260208201905092915050565b600082825260208201905092915050565b600082825260208201905092915050565b600081905092915050565b600061396b82613a85565b915061397683613a85565b9250827fffffffffffffffffffffffffffffffffffffffffffffffffffffffffffffffff038211156139ab576139aa613b7d565b5b828201905092915050565b60006139c182613a85565b91506139cc83613a85565b9250826139dc576139db613bac565b5b828204905092915050565b60006139f282613a85565b91506139fd83613a85565b925082821015613a1057613a0f613b7d565b5b828203905092915050565b6000613a2682613a65565b9050919050565b60008115159050919050565b60007fffffffff0000000000000000000000000000000000000000000000000000000082169050919050565b600073ffffffffffffffffffffffffffffffffffffffff82169050919050565b6000819050919050565b82818337600083830152505050565b60005b83811015613abc578082015181840152602081019050613aa1565b83811115613acb576000848401525b50505050565b60006002820490506001821680613ae957607f821691505b60208210811415613afd57613afc613bdb565b5b50919050565b6000613b0e82613a85565b91507fffffffffffffffffffffffffffffffffffffffffffffffffffffffffffffffff821415613b4157613b40613b7d565b5b600182019050919050565b6000613b5782613a85565b9150613b6283613a85565b925082613b7257613b71613bac565b5b828206905092915050565b7f4e487b7100000000000000000000000000000000000000000000000000000000600052601160045260246000fd5b7f4e487b7100000000000000000000000000000000000000000000000000000000600052601260045260246000fd5b7f4e487b7100000000000000000000000000000000000000000000000000000000600052602260045260246000fd5b7f4e487b7100000000000000000000000000000000000000000000000000000000600052604160045260246000fd5b6000601f19601f8301169050919050565b613c5381613a1b565b8114613c5e57600080fd5b50565b613c6a81613a2d565b8114613c7557600080fd5b50565b613c8181613a39565b8114613c8c57600080fd5b50565b613c9881613a85565b8114613ca357600080fd5b5056fea264697066735822122008cb0ce124bef9c1903833546bb15a0781ea45481770e2565d64d4cf6ffca14464736f6c63430008000033",
  "immutableReferences": {},
  "source": "pragma solidity ^0.8.0;\r\n\r\nimport \"@openzeppelin/contracts/token/ERC721/ERC721.sol\";\r\nimport \"@openzeppelin/contracts/utils/Counters.sol\";\r\nimport \"@openzeppelin/contracts/access/Ownable.sol\";\r\nimport \"@openzeppelin/contracts/token/ERC721/extensions/ERC721URIStorage.sol\";\r\nimport \"@openzeppelin/contracts/token/ERC721/extensions/ERC721Enumerable.sol\";\r\nimport \"@openzeppelin/contracts/utils/math/SafeMath.sol\";\r\n\r\ncontract ERC721Token is ERC721URIStorage, ERC721Enumerable {\r\n  using Counters for Counters.Counter;\r\n  using SafeMath for uint256;\r\n  Counters.Counter private _tokenIds;\r\n  uint256 private _cap;\r\n  mapping (uint256 => uint256) private tokenPrices;\r\n  event Minted(address indexed recipient, uint256 tokenID);\r\n\r\n  constructor(uint256 cap) public ERC721(\"MarsToken\", \"MARS\"){\r\n    require(cap > 0, \"MarsToken: cap must be non-zero\");\r\n    _cap = cap;\r\n  }\r\n\r\n  function mintNFT(address recipient, address WrapperContract, string memory uri, uint256 tokenID, uint256 newPrice)\r\n    public onlyOwner\r\n    returns (uint256)\r\n  {\r\n    require(_exists(tokenID) != true, \"Token cannot be minted, plot already owned\");\r\n    require(tokenID > 0 && tokenID <= _cap, \"Token cannot be minted. Out of bounds for plotID.\");\r\n    require(_tokenIds.current() <= _cap, \"Cannot mint token, cap reached\");\r\n\r\n    _tokenIds.increment();\r\n    _safeMint(recipient, tokenID);\r\n    _setTokenURI(tokenID, uri);\r\n    setApprovalForAll(recipient, owner(), true);\r\n    tokenPrices[tokenID] = newPrice;\r\n    return tokenID;\r\n  }\r\n\r\n  function exists(uint256 plotID) public onlyOwner view returns(bool)\r\n  {\r\n    return(_exists(plotID));\r\n  }\r\n\r\n  function checkCap()\r\n  public onlyOwner view\r\n  returns (uint256)\r\n  {\r\n    return _cap;\r\n  }\r\n\r\n  function _beforeTokenTransfer(address from, address to, uint256 tokenId)\r\n    internal\r\n    override(ERC721, ERC721Enumerable)\r\n  {\r\n      super._beforeTokenTransfer(from, to, tokenId);\r\n  }\r\n\r\n  function _burn(uint256 tokenId) internal override(ERC721, ERC721URIStorage) {\r\n      super._burn(tokenId);\r\n  }\r\n\r\n  function tokenURI(uint256 tokenId)\r\n      public\r\n      view\r\n      override(ERC721, ERC721URIStorage)\r\n      returns (string memory)\r\n  {\r\n      return super.tokenURI(tokenId);\r\n  }\r\n\r\n  function supportsInterface(bytes4 interfaceId)\r\n      public\r\n      view\r\n      override(ERC721, ERC721Enumerable)\r\n      returns (bool)\r\n  {\r\n      return super.supportsInterface(interfaceId);\r\n  }\r\n\r\n  function enumerateTokens(address owner) public view returns(uint256[] memory)\r\n  {\r\n      uint256[] memory tokenIds;\r\n      uint256 tokenIndex = balanceOf(owner);\r\n      for(uint256 index=0; index<tokenIndex; index++){\r\n          tokenIds[index] = tokenOfOwnerByIndex(owner, index);\r\n      }\r\n      return tokenIds;\r\n  }\r\n\r\n\r\n}\r\n",
  "sourcePath": "C:\\Users\\kerpr\\Desktop\\NFT-Wrapper-Contract\\contracts\\ERC721Token.sol",
  "compiler": {
    "name": "solc",
    "version": "0.8.0+commit.c7dfd78e.Emscripten.clang"
  },
  "schemaVersion": "3.4.1",
  "updatedAt": "2021-11-19T04:58:36.356Z",
  "devdoc": {
    "kind": "dev",
    "methods": {
      "approve(address,uint256)": {
        "details": "See {IERC721-approve}."
      },
      "balanceOf(address)": {
        "details": "See {IERC721-balanceOf}."
      },
      "getApproved(uint256)": {
        "details": "See {IERC721-getApproved}."
      },
      "isApprovedForAll(address,address)": {
        "details": "See {IERC721-isApprovedForAll}."
      },
      "name()": {
        "details": "See {IERC721Metadata-name}."
      },
      "owner()": {
        "details": "Returns the address of the current owner."
      },
      "ownerOf(uint256)": {
        "details": "See {IERC721-ownerOf}."
      },
      "renounceOwnership()": {
        "details": "Leaves the contract without owner. It will not be possible to call `onlyOwner` functions anymore. Can only be called by the current owner. NOTE: Renouncing ownership will leave the contract without an owner, thereby removing any functionality that is only available to the owner."
      },
      "safeTransferFrom(address,address,uint256)": {
        "details": "See {IERC721-safeTransferFrom}."
      },
      "safeTransferFrom(address,address,uint256,bytes)": {
        "details": "See {IERC721-safeTransferFrom}."
      },
      "setApprovalForAll(address,address,bool)": {
        "details": "See {IERC721-setApprovalForAll}."
      },
      "symbol()": {
        "details": "See {IERC721Metadata-symbol}."
      },
      "tokenByIndex(uint256)": {
        "details": "See {IERC721Enumerable-tokenByIndex}."
      },
      "tokenOfOwnerByIndex(address,uint256)": {
        "details": "See {IERC721Enumerable-tokenOfOwnerByIndex}."
      },
      "totalSupply()": {
        "details": "See {IERC721Enumerable-totalSupply}."
      },
      "transferFrom(address,address,uint256)": {
        "details": "See {IERC721-transferFrom}."
      },
      "transferOwnership(address)": {
        "details": "Transfers ownership of the contract to a new account (`newOwner`). Can only be called by the current owner."
      }
    },
    "version": 1
  },
  "userdoc": {
    "kind": "user",
    "methods": {},
    "version": 1
  }
}