{
  "contractName": "ERC721Wrapper",
  "abi": [
    {
      "inputs": [
        {
          "internalType": "address payable",
          "name": "TokenAddress",
          "type": "address"
        }
      ],
      "stateMutability": "nonpayable",
      "type": "constructor"
    },
    {
      "anonymous": false,
      "inputs": [
        {
          "indexed": true,
          "internalType": "address",
          "name": "recipient",
          "type": "address"
        },
        {
          "indexed": false,
          "internalType": "uint256",
          "name": "tokenID",
          "type": "uint256"
        }
      ],
      "name": "Minted",
      "type": "event"
    },
    {
      "anonymous": false,
      "inputs": [
        {
          "indexed": true,
          "internalType": "address",
          "name": "previousOwner",
          "type": "address"
        },
        {
          "indexed": true,
          "internalType": "address",
          "name": "newOwner",
          "type": "address"
        }
      ],
      "name": "OwnershipTransferred",
      "type": "event"
    },
    {
      "stateMutability": "payable",
      "type": "fallback"
    },
    {
      "inputs": [],
      "name": "baseToken",
      "outputs": [
        {
          "internalType": "contract ERC721Token",
          "name": "",
          "type": "address"
        }
      ],
      "stateMutability": "view",
      "type": "function"
    },
    {
      "inputs": [],
      "name": "owner",
      "outputs": [
        {
          "internalType": "address",
          "name": "",
          "type": "address"
        }
      ],
      "stateMutability": "view",
      "type": "function"
    },
    {
      "inputs": [],
      "name": "renounceOwnership",
      "outputs": [],
      "stateMutability": "nonpayable",
      "type": "function"
    },
    {
      "inputs": [
        {
          "internalType": "address",
          "name": "newOwner",
          "type": "address"
        }
      ],
      "name": "transferOwnership",
      "outputs": [],
      "stateMutability": "nonpayable",
      "type": "function"
    },
    {
      "stateMutability": "payable",
      "type": "receive"
    },
    {
      "inputs": [
        {
          "internalType": "uint256",
          "name": "tokenID",
          "type": "uint256"
        }
      ],
      "name": "checkExist",
      "outputs": [
        {
          "internalType": "bool",
          "name": "",
          "type": "bool"
        }
      ],
      "stateMutability": "view",
      "type": "function"
    },
    {
      "inputs": [],
      "name": "getTokenAddress",
      "outputs": [
        {
          "internalType": "address",
          "name": "",
          "type": "address"
        }
      ],
      "stateMutability": "view",
      "type": "function"
    },
    {
      "inputs": [],
      "name": "getBalance",
      "outputs": [
        {
          "internalType": "uint256",
          "name": "",
          "type": "uint256"
        }
      ],
      "stateMutability": "view",
      "type": "function"
    },
    {
      "inputs": [],
      "name": "withdrawFunds",
      "outputs": [],
      "stateMutability": "nonpayable",
      "type": "function"
    },
    {
      "inputs": [
        {
          "internalType": "uint256",
          "name": "tokenID",
          "type": "uint256"
        }
      ],
      "name": "checkTokenPrice",
      "outputs": [
        {
          "internalType": "uint256",
          "name": "",
          "type": "uint256"
        }
      ],
      "stateMutability": "view",
      "type": "function"
    },
    {
      "inputs": [
        {
          "internalType": "address",
          "name": "minter",
          "type": "address"
        },
        {
          "internalType": "string",
          "name": "uri",
          "type": "string"
        },
        {
          "internalType": "uint256",
          "name": "id",
          "type": "uint256"
        },
        {
          "internalType": "uint256",
          "name": "newPrice",
          "type": "uint256"
        }
      ],
      "name": "sendFee",
      "outputs": [],
      "stateMutability": "payable",
      "type": "function"
    },
    {
      "inputs": [
        {
          "internalType": "uint256",
          "name": "tokenID",
          "type": "uint256"
        }
      ],
      "name": "checkOwner",
      "outputs": [
        {
          "internalType": "address",
          "name": "",
          "type": "address"
        }
      ],
      "stateMutability": "view",
      "type": "function"
    },
    {
      "inputs": [
        {
          "internalType": "address",
          "name": "owner",
          "type": "address"
        }
      ],
      "name": "checkOperator",
      "outputs": [
        {
          "internalType": "bool",
          "name": "",
          "type": "bool"
        }
      ],
      "stateMutability": "view",
      "type": "function"
    },
    {
      "inputs": [
        {
          "internalType": "address payable",
          "name": "from",
          "type": "address"
        },
        {
          "internalType": "address",
          "name": "to",
          "type": "address"
        },
        {
          "internalType": "uint256",
          "name": "tokenID",
          "type": "uint256"
        },
        {
          "internalType": "uint256",
          "name": "newPrice",
          "type": "uint256"
        }
      ],
      "name": "purchaseToken",
      "outputs": [],
      "stateMutability": "payable",
      "type": "function"
    },
    {
      "inputs": [
        {
          "internalType": "address",
          "name": "owner",
          "type": "address"
        }
      ],
      "name": "checkBalance",
      "outputs": [
        {
          "internalType": "uint256",
          "name": "",
          "type": "uint256"
        }
      ],
      "stateMutability": "view",
      "type": "function"
    }
  ],
  "bytecode": "0x608060405266b1a2bc2ec500006001553480156200001c57600080fd5b5060405162001f2e38038062001f2e8339818101604052810190620000429190620001ce565b6200006262000056620000eb60201b60201c565b620000f360201b60201c565b80600260006101000a81548173ffffffffffffffffffffffffffffffffffffffff021916908373ffffffffffffffffffffffffffffffffffffffff16021790555080600360006101000a81548173ffffffffffffffffffffffffffffffffffffffff021916908373ffffffffffffffffffffffffffffffffffffffff1602179055505062000248565b600033905090565b60008060009054906101000a900473ffffffffffffffffffffffffffffffffffffffff169050816000806101000a81548173ffffffffffffffffffffffffffffffffffffffff021916908373ffffffffffffffffffffffffffffffffffffffff1602179055508173ffffffffffffffffffffffffffffffffffffffff168173ffffffffffffffffffffffffffffffffffffffff167f8be0079c531659141344cd1fd0a4f28419497f9722a3daafe3b4186f6b6457e060405160405180910390a35050565b600081519050620001c8816200022e565b92915050565b600060208284031215620001e157600080fd5b6000620001f184828501620001b7565b91505092915050565b600062000207826200020e565b9050919050565b600073ffffffffffffffffffffffffffffffffffffffff82169050919050565b6200023981620001fa565b81146200024557600080fd5b50565b611cd680620002586000396000f3fe6080604052600436106100e15760003560e01c8063825f6f911161007f578063aef336a911610059578063aef336a9146102a9578063c55dae63146102c5578063de1ac2fd146102f0578063f2fde38b1461032d576100e8565b8063825f6f91146102255780638da5cb5b146102415780639870dce01461026c576100e8565b806330d02a94116100bb57806330d02a94146101575780635b4f0a9a146101945780635f515226146101d1578063715018a61461020e576100e8565b806310fe9ae8146100ea57806312065fe01461011557806324600fc314610140576100e8565b366100e857005b005b3480156100f657600080fd5b506100ff610356565b60405161010c9190611809565b60405180910390f35b34801561012157600080fd5b5061012a6103fc565b6040516101379190611a6b565b60405180910390f35b34801561014c57600080fd5b50610155610480565b005b34801561016357600080fd5b5061017e60048036038101906101799190611478565b61055f565b60405161018b9190611a6b565b60405180910390f35b3480156101a057600080fd5b506101bb60048036038101906101b69190611478565b61057c565b6040516101c89190611915565b60405180910390f35b3480156101dd57600080fd5b506101f860048036038101906101f3919061131f565b610630565b6040516102059190611a6b565b60405180910390f35b34801561021a57600080fd5b506102236106e4565b005b61023f600480360381019061023a91906113d4565b61076c565b005b34801561024d57600080fd5b5061025661091c565b6040516102639190611809565b60405180910390f35b34801561027857600080fd5b50610293600480360381019061028e9190611478565b610945565b6040516102a09190611809565b60405180910390f35b6102c360048036038101906102be9190611371565b6109fe565b005b3480156102d157600080fd5b506102da610cbc565b6040516102e79190611930565b60405180910390f35b3480156102fc57600080fd5b506103176004803603810190610312919061131f565b610ce2565b6040516103249190611915565b60405180910390f35b34801561033957600080fd5b50610354600480360381019061034f919061131f565b610e14565b005b6000610360610f0c565b73ffffffffffffffffffffffffffffffffffffffff1661037e61091c565b73ffffffffffffffffffffffffffffffffffffffff16146103d4576040517f08c379a00000000000000000000000000000000000000000000000000000000081526004016103cb906119cb565b60405180910390fd5b600360009054906101000a900473ffffffffffffffffffffffffffffffffffffffff16905090565b6000610406610f0c565b73ffffffffffffffffffffffffffffffffffffffff1661042461091c565b73ffffffffffffffffffffffffffffffffffffffff161461047a576040517f08c379a0000000000000000000000000000000000000000000000000000000008152600401610471906119cb565b60405180910390fd5b47905090565b610488610f0c565b73ffffffffffffffffffffffffffffffffffffffff166104a661091c565b73ffffffffffffffffffffffffffffffffffffffff16146104fc576040517f08c379a00000000000000000000000000000000000000000000000000000000081526004016104f3906119cb565b60405180910390fd5b60006105066103fc565b9050600061051261091c565b90508073ffffffffffffffffffffffffffffffffffffffff166108fc839081150290604051600060405180830381858888f1935050505015801561055a573d6000803e3d6000fd5b505050565b600060056000838152602001908152602001600020549050919050565b6000600260009054906101000a900473ffffffffffffffffffffffffffffffffffffffff1673ffffffffffffffffffffffffffffffffffffffff16634f558e79836040518263ffffffff1660e01b81526004016105d99190611a6b565b60206040518083038186803b1580156105f157600080fd5b505afa158015610605573d6000803e3d6000fd5b505050506040513d601f19601f82011682018060405250810190610629919061144f565b9050919050565b6000600260009054906101000a900473ffffffffffffffffffffffffffffffffffffffff1673ffffffffffffffffffffffffffffffffffffffff166370a08231836040518263ffffffff1660e01b815260040161068d9190611809565b60206040518083038186803b1580156106a557600080fd5b505afa1580156106b9573d6000803e3d6000fd5b505050506040513d601f19601f820116820180604052508101906106dd91906114a1565b9050919050565b6106ec610f0c565b73ffffffffffffffffffffffffffffffffffffffff1661070a61091c565b73ffffffffffffffffffffffffffffffffffffffff1614610760576040517f08c379a0000000000000000000000000000000000000000000000000000000008152600401610757906119cb565b60405180910390fd5b61076a6000610f14565b565b600115156107798361057c565b151514156107bc576040517f08c379a00000000000000000000000000000000000000000000000000000000081526004016107b39061196b565b60405180910390fd5b600154341015610801576040517f08c379a00000000000000000000000000000000000000000000000000000000081526004016107f8906119ab565b60405180910390fd5b6000803073ffffffffffffffffffffffffffffffffffffffff1634604051610828906117f4565b60006040518083038185875af1925050503d8060008114610865576040519150601f19603f3d011682016040523d82523d6000602084013e61086a565b606091505b5091509150816108af576040517f08c379a00000000000000000000000000000000000000000000000000000000081526004016108a690611a2b565b60405180910390fd5b6001600460003373ffffffffffffffffffffffffffffffffffffffff1673ffffffffffffffffffffffffffffffffffffffff16815260200190815260200160002060006101000a81548160ff02191690831515021790555061091386868686610fd8565b50505050505050565b60008060009054906101000a900473ffffffffffffffffffffffffffffffffffffffff16905090565b600080600260009054906101000a900473ffffffffffffffffffffffffffffffffffffffff1673ffffffffffffffffffffffffffffffffffffffff16636352211e846040518263ffffffff1660e01b81526004016109a39190611a6b565b60206040518083038186803b1580156109bb57600080fd5b505afa1580156109cf573d6000803e3d6000fd5b505050506040513d601f19601f820116820180604052508101906109f39190611348565b905080915050919050565b610a0782610945565b73ffffffffffffffffffffffffffffffffffffffff163373ffffffffffffffffffffffffffffffffffffffff161415610a75576040517f08c379a0000000000000000000000000000000000000000000000000000000008152600401610a6c90611a0b565b60405180910390fd5b6005600083815260200190815260200160002054341015610acb576040517f08c379a0000000000000000000000000000000000000000000000000000000008152600401610ac29061194b565b60405180910390fd5b8060056000848152602001908152602001600020819055506000808573ffffffffffffffffffffffffffffffffffffffff1634604051610b0a906117f4565b60006040518083038185875af1925050503d8060008114610b47576040519150601f19603f3d011682016040523d82523d6000602084013e610b4c565b606091505b509150915081610b91576040517f08c379a0000000000000000000000000000000000000000000000000000000008152600401610b8890611a2b565b60405180910390fd5b600260009054906101000a900473ffffffffffffffffffffffffffffffffffffffff1673ffffffffffffffffffffffffffffffffffffffff1663367605ca863060016040518463ffffffff1660e01b8152600401610bf193929190611884565b600060405180830381600087803b158015610c0b57600080fd5b505af1158015610c1f573d6000803e3d6000fd5b50505050600260009054906101000a900473ffffffffffffffffffffffffffffffffffffffff1673ffffffffffffffffffffffffffffffffffffffff166342842e0e8787876040518463ffffffff1660e01b8152600401610c8293929190611824565b600060405180830381600087803b158015610c9c57600080fd5b505af1158015610cb0573d6000803e3d6000fd5b50505050505050505050565b600260009054906101000a900473ffffffffffffffffffffffffffffffffffffffff1681565b6000610cec610f0c565b73ffffffffffffffffffffffffffffffffffffffff16610d0a61091c565b73ffffffffffffffffffffffffffffffffffffffff1614610d60576040517f08c379a0000000000000000000000000000000000000000000000000000000008152600401610d57906119cb565b60405180910390fd5b600260009054906101000a900473ffffffffffffffffffffffffffffffffffffffff1673ffffffffffffffffffffffffffffffffffffffff1663e985e9c583306040518363ffffffff1660e01b8152600401610dbd92919061185b565b60206040518083038186803b158015610dd557600080fd5b505afa158015610de9573d6000803e3d6000fd5b505050506040513d601f19601f82011682018060405250810190610e0d919061144f565b9050919050565b610e1c610f0c565b73ffffffffffffffffffffffffffffffffffffffff16610e3a61091c565b73ffffffffffffffffffffffffffffffffffffffff1614610e90576040517f08c379a0000000000000000000000000000000000000000000000000000000008152600401610e87906119cb565b60405180910390fd5b600073ffffffffffffffffffffffffffffffffffffffff168173ffffffffffffffffffffffffffffffffffffffff161415610f00576040517f08c379a0000000000000000000000000000000000000000000000000000000008152600401610ef79061198b565b60405180910390fd5b610f0981610f14565b50565b600033905090565b60008060009054906101000a900473ffffffffffffffffffffffffffffffffffffffff169050816000806101000a81548173ffffffffffffffffffffffffffffffffffffffff021916908373ffffffffffffffffffffffffffffffffffffffff1602179055508173ffffffffffffffffffffffffffffffffffffffff168173ffffffffffffffffffffffffffffffffffffffff167f8be0079c531659141344cd1fd0a4f28419497f9722a3daafe3b4186f6b6457e060405160405180910390a35050565b6000600460008673ffffffffffffffffffffffffffffffffffffffff1673ffffffffffffffffffffffffffffffffffffffff16815260200190815260200160002060009054906101000a900460ff16611066576040517f08c379a000000000000000000000000000000000000000000000000000000000815260040161105d90611a4b565b60405180910390fd5b600115156110738461057c565b151514156110b6576040517f08c379a00000000000000000000000000000000000000000000000000000000081526004016110ad906119eb565b60405180910390fd5b6000600460008773ffffffffffffffffffffffffffffffffffffffff1673ffffffffffffffffffffffffffffffffffffffff16815260200190815260200160002060006101000a81548160ff0219169083151502179055508160056000858152602001908152602001600020819055506000600260009054906101000a900473ffffffffffffffffffffffffffffffffffffffff1673ffffffffffffffffffffffffffffffffffffffff1663bbd0036887308888886040518663ffffffff1660e01b815260040161118b9594939291906118bb565b602060405180830381600087803b1580156111a557600080fd5b505af11580156111b9573d6000803e3d6000fd5b505050506040513d601f19601f820116820180604052508101906111dd91906114a1565b90508573ffffffffffffffffffffffffffffffffffffffff167f30385c845b448a36257a6a1716e6ad2e1bc2cbe333cde1e69fe849ad6511adfe826040516112259190611a6b565b60405180910390a280915050949350505050565b600061124c61124784611ab7565b611a86565b90508281526020810184848401111561126457600080fd5b61126f848285611bc2565b509392505050565b60008135905061128681611c44565b92915050565b60008151905061129b81611c44565b92915050565b6000813590506112b081611c5b565b92915050565b6000815190506112c581611c72565b92915050565b600082601f8301126112dc57600080fd5b81356112ec848260208601611239565b91505092915050565b60008135905061130481611c89565b92915050565b60008151905061131981611c89565b92915050565b60006020828403121561133157600080fd5b600061133f84828501611277565b91505092915050565b60006020828403121561135a57600080fd5b60006113688482850161128c565b91505092915050565b6000806000806080858703121561138757600080fd5b6000611395878288016112a1565b94505060206113a687828801611277565b93505060406113b7878288016112f5565b92505060606113c8878288016112f5565b91505092959194509250565b600080600080608085870312156113ea57600080fd5b60006113f887828801611277565b945050602085013567ffffffffffffffff81111561141557600080fd5b611421878288016112cb565b9350506040611432878288016112f5565b9250506060611443878288016112f5565b91505092959194509250565b60006020828403121561146157600080fd5b600061146f848285016112b6565b91505092915050565b60006020828403121561148a57600080fd5b6000611498848285016112f5565b91505092915050565b6000602082840312156114b357600080fd5b60006114c18482850161130a565b91505092915050565b6114d381611b68565b82525050565b6114e281611b0e565b82525050565b6114f181611b32565b82525050565b61150081611b7a565b82525050565b600061151182611ae7565b61151b8185611afd565b935061152b818560208601611bd1565b61153481611c33565b840191505092915050565b600061154c601383611afd565b91507f4d7573742073656e64206d6f7265204554482e000000000000000000000000006000830152602082019050919050565b600061158c601583611afd565b91507f546f6b656e20616c7265616479206d696e7465642e00000000000000000000006000830152602082019050919050565b60006115cc602683611afd565b91507f4f776e61626c653a206e6577206f776e657220697320746865207a65726f206160008301527f64647265737300000000000000000000000000000000000000000000000000006020830152604082019050919050565b6000611632601f83611afd565b91507f4d7573742073656e6420302e303520455448206d696e74696e67206665652e006000830152602082019050919050565b6000611672602083611afd565b91507f4f776e61626c653a2063616c6c6572206973206e6f7420746865206f776e65726000830152602082019050919050565b60006116b2603983611afd565b91507f546f6b656e20616c7265616479206d696e7465642c20706c656173652070757260008301527f63686173652066726f6d2063757272656e74206f776e65722e000000000000006020830152604082019050919050565b6000611718601a83611afd565b91507f596f7520616c7265616479206f776e207468697320706c6f742e0000000000006000830152602082019050919050565b6000611758600083611af2565b9150600082019050919050565b6000611772601283611afd565b91507f436f756c64206e6f742073656e642045544800000000000000000000000000006000830152602082019050919050565b60006117b2601583611afd565b91507f4d75737420706179206d696e74696e67206665652e00000000000000000000006000830152602082019050919050565b6117ee81611b5e565b82525050565b60006117ff8261174b565b9150819050919050565b600060208201905061181e60008301846114d9565b92915050565b600060608201905061183960008301866114ca565b61184660208301856114d9565b61185360408301846117e5565b949350505050565b600060408201905061187060008301856114d9565b61187d60208301846114d9565b9392505050565b600060608201905061189960008301866114d9565b6118a660208301856114d9565b6118b360408301846114e8565b949350505050565b600060a0820190506118d060008301886114d9565b6118dd60208301876114d9565b81810360408301526118ef8186611506565b90506118fe60608301856117e5565b61190b60808301846117e5565b9695505050505050565b600060208201905061192a60008301846114e8565b92915050565b600060208201905061194560008301846114f7565b92915050565b600060208201905081810360008301526119648161153f565b9050919050565b600060208201905081810360008301526119848161157f565b9050919050565b600060208201905081810360008301526119a4816115bf565b9050919050565b600060208201905081810360008301526119c481611625565b9050919050565b600060208201905081810360008301526119e481611665565b9050919050565b60006020820190508181036000830152611a04816116a5565b9050919050565b60006020820190508181036000830152611a248161170b565b9050919050565b60006020820190508181036000830152611a4481611765565b9050919050565b60006020820190508181036000830152611a64816117a5565b9050919050565b6000602082019050611a8060008301846117e5565b92915050565b6000604051905081810181811067ffffffffffffffff82111715611aad57611aac611c04565b5b8060405250919050565b600067ffffffffffffffff821115611ad257611ad1611c04565b5b601f19601f8301169050602081019050919050565b600081519050919050565b600081905092915050565b600082825260208201905092915050565b6000611b1982611b3e565b9050919050565b6000611b2b82611b3e565b9050919050565b60008115159050919050565b600073ffffffffffffffffffffffffffffffffffffffff82169050919050565b6000819050919050565b6000611b7382611b9e565b9050919050565b6000611b8582611b8c565b9050919050565b6000611b9782611b3e565b9050919050565b6000611ba982611bb0565b9050919050565b6000611bbb82611b3e565b9050919050565b82818337600083830152505050565b60005b83811015611bef578082015181840152602081019050611bd4565b83811115611bfe576000848401525b50505050565b7f4e487b7100000000000000000000000000000000000000000000000000000000600052604160045260246000fd5b6000601f19601f8301169050919050565b611c4d81611b0e565b8114611c5857600080fd5b50565b611c6481611b20565b8114611c6f57600080fd5b50565b611c7b81611b32565b8114611c8657600080fd5b50565b611c9281611b5e565b8114611c9d57600080fd5b5056fea2646970667358221220e31003066327435368937e2f20f9d14bee21c5105c290c0c02e29a002cf4a4c064736f6c63430008000033",
  "immutableReferences": {},
  "source": "pragma solidity ^0.8.0;\r\n\r\nimport \"./ERC721Token.sol\";\r\nimport \"@openzeppelin/contracts/access/Ownable.sol\";\r\nimport \"@openzeppelin/contracts/utils/math/SafeMath.sol\";\r\n\r\ncontract ERC721Wrapper is Ownable {\r\n  using SafeMath for uint256;\r\n  uint256 private initPrice = 50000000000000000; // 0.05 ETH\r\n\r\n\r\n  ERC721Token public baseToken;\r\n  address private baseTokenAddress;\r\n\r\n  mapping(address => bool) private paidForToken;\r\n  mapping(uint256 => uint256) private tokenPrices;\r\n\r\n  event Minted(address indexed recipient, uint256 tokenID);\r\n\r\n  constructor(\r\n    address payable TokenAddress\r\n    )\r\n    public\r\n    {\r\n      baseToken = ERC721Token(TokenAddress);\r\n      baseTokenAddress = TokenAddress;\r\n    }\r\n\r\n    // Function to receive Ether. msg.data must be empty\r\n    receive() external payable {}\r\n\r\n    // Fallback function is called when msg.data is not empty\r\n    fallback() external payable {}\r\n\r\n    function checkExist(uint256 tokenID) public view returns(bool)\r\n    {\r\n      return baseToken.exists(tokenID);\r\n    }\r\n\r\n    function getTokenAddress() public onlyOwner view returns(address)\r\n    {\r\n      return(baseTokenAddress);\r\n    }\r\n\r\n    function getBalance() public onlyOwner view returns(uint256) {\r\n      return address(this).balance;\r\n    }\r\n\r\n    function withdrawFunds() public onlyOwner {\r\n      uint256 balance = getBalance();\r\n      address owner = owner();\r\n      payable(owner).transfer(balance);\r\n    }\r\n\r\n    function checkTokenPrice(uint256 tokenID) public view returns(uint256){\r\n      return tokenPrices[tokenID];\r\n    }\r\n\r\n    function sendFee(address minter, string memory uri, uint256 id, uint256 newPrice) public payable{\r\n      require(checkExist(id) != true, \"Token already minted.\");\r\n      require(msg.value >=  initPrice, \"Must send 0.05 ETH minting fee.\");\r\n      (bool sent, bytes memory data) = address(this).call{value:msg.value}(\"\");\r\n      require(sent, \"Could not send ETH\");\r\n      paidForToken[msg.sender] = true;\r\n      mintNewPlot(minter, uri, id, newPrice);\r\n    }\r\n\r\n    function mintNewPlot(address recipient, string memory tokenURI, uint256 tokenID, uint256 newPrice) private returns(uint256)\r\n    {\r\n      require(paidForToken[recipient], \"Must pay minting fee.\");\r\n      require(checkExist(tokenID) != true, \"Token already minted, please purchase from current owner.\");\r\n      //must pay fee for each mint\r\n      paidForToken[recipient] = false;\r\n      tokenPrices[tokenID] = newPrice;\r\n      uint256 _newTokenID = baseToken.mintNFT(recipient, address(this), tokenURI, tokenID, newPrice);\r\n      emit Minted(recipient, _newTokenID);\r\n      return _newTokenID;\r\n\r\n    }\r\n\r\n    function checkOwner(uint256 tokenID) public view returns(address){\r\n      address owner = baseToken.ownerOf(tokenID);\r\n      return owner;\r\n    }\r\n\r\n\r\n    function checkOperator(address owner) public onlyOwner view returns(bool)\r\n    {\r\n      return(baseToken.isApprovedForAll(owner, address(this)));\r\n    }\r\n\r\n    function purchaseToken(address payable from, address to, uint256 tokenID, uint256 newPrice) public payable\r\n    {\r\n      require(msg.sender != checkOwner(tokenID), \"You already own this plot.\");\r\n      require(msg.value >= tokenPrices[tokenID], \"Must send more ETH.\");\r\n      tokenPrices[tokenID] = newPrice;\r\n      (bool sent, bytes memory data) = from.call{value:msg.value}(\"\");\r\n      require(sent, \"Could not send ETH\");\r\n      baseToken.setApprovalForAll(to, address(this), true);\r\n      baseToken.safeTransferFrom(from, to, tokenID);\r\n    }\r\n\r\n    function checkBalance(address owner) public view returns(uint256)\r\n    {\r\n      return baseToken.balanceOf(owner);\r\n    }\r\n\r\n\r\n\r\n\r\n\r\n}\r\n",
  "sourcePath": "C:/Users/kerpr/Desktop/NFT-Wrapper-Contract/contracts/ERC721Wrapper.sol",
  "compiler": {
    "name": "solc",
    "version": "0.8.0+commit.c7dfd78e.Emscripten.clang"
  },
  "schemaVersion": "3.4.1",
  "updatedAt": "2021-11-19T04:58:36.371Z",
  "devdoc": {
    "kind": "dev",
    "methods": {
      "owner()": {
        "details": "Returns the address of the current owner."
      },
      "renounceOwnership()": {
        "details": "Leaves the contract without owner. It will not be possible to call `onlyOwner` functions anymore. Can only be called by the current owner. NOTE: Renouncing ownership will leave the contract without an owner, thereby removing any functionality that is only available to the owner."
      },
      "transferOwnership(address)": {
        "details": "Transfers ownership of the contract to a new account (`newOwner`). Can only be called by the current owner."
      }
    },
    "version": 1
  },
  "userdoc": {
    "kind": "user",
    "methods": {},
    "version": 1
  }
}