{
  "contractName": "ERC721Wrapper",
  "abi": [
    {
      "inputs": [
        {
          "internalType": "address payable",
          "name": "TokenAddress",
          "type": "address"
        }
      ],
      "stateMutability": "nonpayable",
      "type": "constructor"
    },
    {
      "anonymous": false,
      "inputs": [
        {
          "indexed": true,
          "internalType": "address",
          "name": "recipient",
          "type": "address"
        },
        {
          "indexed": false,
          "internalType": "uint256",
          "name": "tokenID",
          "type": "uint256"
        }
      ],
      "name": "Minted",
      "type": "event"
    },
    {
      "anonymous": false,
      "inputs": [
        {
          "indexed": true,
          "internalType": "address",
          "name": "previousOwner",
          "type": "address"
        },
        {
          "indexed": true,
          "internalType": "address",
          "name": "newOwner",
          "type": "address"
        }
      ],
      "name": "OwnershipTransferred",
      "type": "event"
    },
    {
      "stateMutability": "payable",
      "type": "fallback"
    },
    {
      "inputs": [],
      "name": "baseToken",
      "outputs": [
        {
          "internalType": "contract ERC721Token",
          "name": "",
          "type": "address"
        }
      ],
      "stateMutability": "view",
      "type": "function"
    },
    {
      "inputs": [],
      "name": "owner",
      "outputs": [
        {
          "internalType": "address",
          "name": "",
          "type": "address"
        }
      ],
      "stateMutability": "view",
      "type": "function"
    },
    {
      "inputs": [],
      "name": "renounceOwnership",
      "outputs": [],
      "stateMutability": "nonpayable",
      "type": "function"
    },
    {
      "inputs": [
        {
          "internalType": "address",
          "name": "newOwner",
          "type": "address"
        }
      ],
      "name": "transferOwnership",
      "outputs": [],
      "stateMutability": "nonpayable",
      "type": "function"
    },
    {
      "stateMutability": "payable",
      "type": "receive"
    },
    {
      "inputs": [
        {
          "internalType": "uint256",
          "name": "tokenID",
          "type": "uint256"
        }
      ],
      "name": "checkExist",
      "outputs": [
        {
          "internalType": "bool",
          "name": "",
          "type": "bool"
        }
      ],
      "stateMutability": "view",
      "type": "function"
    },
    {
      "inputs": [],
      "name": "getTokenAddress",
      "outputs": [
        {
          "internalType": "address",
          "name": "",
          "type": "address"
        }
      ],
      "stateMutability": "view",
      "type": "function"
    },
    {
      "inputs": [],
      "name": "getBalance",
      "outputs": [
        {
          "internalType": "uint256",
          "name": "",
          "type": "uint256"
        }
      ],
      "stateMutability": "view",
      "type": "function"
    },
    {
      "inputs": [],
      "name": "withdrawFunds",
      "outputs": [],
      "stateMutability": "nonpayable",
      "type": "function"
    },
    {
      "inputs": [
        {
          "internalType": "uint256",
          "name": "tokenID",
          "type": "uint256"
        }
      ],
      "name": "checkTokenPrice",
      "outputs": [
        {
          "internalType": "uint256",
          "name": "",
          "type": "uint256"
        }
      ],
      "stateMutability": "view",
      "type": "function"
    },
    {
      "inputs": [
        {
          "internalType": "address",
          "name": "minter",
          "type": "address"
        },
        {
          "internalType": "string",
          "name": "uri",
          "type": "string"
        },
        {
          "internalType": "uint256",
          "name": "id",
          "type": "uint256"
        },
        {
          "internalType": "uint256",
          "name": "newPrice",
          "type": "uint256"
        }
      ],
      "name": "sendFee",
      "outputs": [],
      "stateMutability": "payable",
      "type": "function"
    },
    {
      "inputs": [
        {
          "internalType": "uint256",
          "name": "tokenID",
          "type": "uint256"
        }
      ],
      "name": "checkOwner",
      "outputs": [
        {
          "internalType": "address",
          "name": "",
          "type": "address"
        }
      ],
      "stateMutability": "view",
      "type": "function"
    },
    {
      "inputs": [
        {
          "internalType": "address",
          "name": "owner",
          "type": "address"
        }
      ],
      "name": "checkOperator",
      "outputs": [
        {
          "internalType": "bool",
          "name": "",
          "type": "bool"
        }
      ],
      "stateMutability": "view",
      "type": "function"
    },
    {
      "inputs": [
        {
          "internalType": "address payable",
          "name": "from",
          "type": "address"
        },
        {
          "internalType": "address",
          "name": "to",
          "type": "address"
        },
        {
          "internalType": "uint256",
          "name": "tokenID",
          "type": "uint256"
        },
        {
          "internalType": "uint256",
          "name": "newPrice",
          "type": "uint256"
        }
      ],
      "name": "purchaseToken",
      "outputs": [],
      "stateMutability": "payable",
      "type": "function"
    },
    {
      "inputs": [
        {
          "internalType": "address",
          "name": "owner",
          "type": "address"
        }
      ],
      "name": "checkBalance",
      "outputs": [
        {
          "internalType": "uint256",
          "name": "",
          "type": "uint256"
        }
      ],
      "stateMutability": "view",
      "type": "function"
    }
  ],
  "bytecode": "0x608060405266b1a2bc2ec500006002553480156200001c57600080fd5b5060405162001fc938038062001fc98339818101604052810190620000429190620001d0565b6200006262000056620000eb60201b60201c565b620000f360201b60201c565b80600360006101000a81548173ffffffffffffffffffffffffffffffffffffffff021916908373ffffffffffffffffffffffffffffffffffffffff16021790555080600460006101000a81548173ffffffffffffffffffffffffffffffffffffffff021916908373ffffffffffffffffffffffffffffffffffffffff160217905550506200024a565b600033905090565b6000600160009054906101000a900473ffffffffffffffffffffffffffffffffffffffff16905081600160006101000a81548173ffffffffffffffffffffffffffffffffffffffff021916908373ffffffffffffffffffffffffffffffffffffffff1602179055508173ffffffffffffffffffffffffffffffffffffffff168173ffffffffffffffffffffffffffffffffffffffff167f8be0079c531659141344cd1fd0a4f28419497f9722a3daafe3b4186f6b6457e060405160405180910390a35050565b600081519050620001ca8162000230565b92915050565b600060208284031215620001e357600080fd5b6000620001f384828501620001b9565b91505092915050565b6000620002098262000210565b9050919050565b600073ffffffffffffffffffffffffffffffffffffffff82169050919050565b6200023b81620001fc565b81146200024757600080fd5b50565b611d6f806200025a6000396000f3fe6080604052600436106100e15760003560e01c8063825f6f911161007f578063aef336a911610059578063aef336a9146102a9578063c55dae63146102c5578063de1ac2fd146102f0578063f2fde38b1461032d576100e8565b8063825f6f91146102255780638da5cb5b146102415780639870dce01461026c576100e8565b806330d02a94116100bb57806330d02a94146101575780635b4f0a9a146101945780635f515226146101d1578063715018a61461020e576100e8565b806310fe9ae8146100ea57806312065fe01461011557806324600fc314610140576100e8565b366100e857005b005b3480156100f657600080fd5b506100ff610356565b60405161010c919061189e565b60405180910390f35b34801561012157600080fd5b5061012a6103fc565b6040516101379190611b04565b60405180910390f35b34801561014c57600080fd5b50610155610480565b005b34801561016357600080fd5b5061017e600480360381019061017991906114cd565b61055f565b60405161018b9190611b04565b60405180910390f35b3480156101a057600080fd5b506101bb60048036038101906101b691906114cd565b61057c565b6040516101c8919061198e565b60405180910390f35b3480156101dd57600080fd5b506101f860048036038101906101f39190611374565b610630565b6040516102059190611b04565b60405180910390f35b34801561021a57600080fd5b506102236106e4565b005b61023f600480360381019061023a9190611429565b61076c565b005b34801561024d57600080fd5b50610256610972565b604051610263919061189e565b60405180910390f35b34801561027857600080fd5b50610293600480360381019061028e91906114cd565b61099c565b6040516102a0919061189e565b60405180910390f35b6102c360048036038101906102be91906113c6565b610a55565b005b3480156102d157600080fd5b506102da610d13565b6040516102e791906119a9565b60405180910390f35b3480156102fc57600080fd5b5061031760048036038101906103129190611374565b610d39565b604051610324919061198e565b60405180910390f35b34801561033957600080fd5b50610354600480360381019061034f9190611374565b610e6b565b005b6000610360610f63565b73ffffffffffffffffffffffffffffffffffffffff1661037e610972565b73ffffffffffffffffffffffffffffffffffffffff16146103d4576040517f08c379a00000000000000000000000000000000000000000000000000000000081526004016103cb90611a64565b60405180910390fd5b600460009054906101000a900473ffffffffffffffffffffffffffffffffffffffff16905090565b6000610406610f63565b73ffffffffffffffffffffffffffffffffffffffff16610424610972565b73ffffffffffffffffffffffffffffffffffffffff161461047a576040517f08c379a000000000000000000000000000000000000000000000000000000000815260040161047190611a64565b60405180910390fd5b47905090565b610488610f63565b73ffffffffffffffffffffffffffffffffffffffff166104a6610972565b73ffffffffffffffffffffffffffffffffffffffff16146104fc576040517f08c379a00000000000000000000000000000000000000000000000000000000081526004016104f390611a64565b60405180910390fd5b60006105066103fc565b90506000610512610972565b90508073ffffffffffffffffffffffffffffffffffffffff166108fc839081150290604051600060405180830381858888f1935050505015801561055a573d6000803e3d6000fd5b505050565b600060066000838152602001908152602001600020549050919050565b6000600360009054906101000a900473ffffffffffffffffffffffffffffffffffffffff1673ffffffffffffffffffffffffffffffffffffffff16634f558e79836040518263ffffffff1660e01b81526004016105d99190611b04565b60206040518083038186803b1580156105f157600080fd5b505afa158015610605573d6000803e3d6000fd5b505050506040513d601f19601f8201168201806040525081019061062991906114a4565b9050919050565b6000600360009054906101000a900473ffffffffffffffffffffffffffffffffffffffff1673ffffffffffffffffffffffffffffffffffffffff166370a08231836040518263ffffffff1660e01b815260040161068d919061189e565b60206040518083038186803b1580156106a557600080fd5b505afa1580156106b9573d6000803e3d6000fd5b505050506040513d601f19601f820116820180604052508101906106dd91906114f6565b9050919050565b6106ec610f63565b73ffffffffffffffffffffffffffffffffffffffff1661070a610972565b73ffffffffffffffffffffffffffffffffffffffff1614610760576040517f08c379a000000000000000000000000000000000000000000000000000000000815260040161075790611a64565b60405180910390fd5b61076a6000610f6b565b565b600160005414156107b2576040517f08c379a00000000000000000000000000000000000000000000000000000000081526004016107a990611a24565b60405180910390fd5b6001600081905550600115156107c78361057c565b1515141561080a576040517f08c379a0000000000000000000000000000000000000000000000000000000008152600401610801906119e4565b60405180910390fd5b60025434101561084f576040517f08c379a000000000000000000000000000000000000000000000000000000000815260040161084690611a44565b60405180910390fd5b6000803073ffffffffffffffffffffffffffffffffffffffff163460405161087690611889565b60006040518083038185875af1925050503d80600081146108b3576040519150601f19603f3d011682016040523d82523d6000602084013e6108b8565b606091505b5091509150816108fd576040517f08c379a00000000000000000000000000000000000000000000000000000000081526004016108f490611ac4565b60405180910390fd5b6001600560003373ffffffffffffffffffffffffffffffffffffffff1673ffffffffffffffffffffffffffffffffffffffff16815260200190815260200160002060006101000a81548160ff02191690831515021790555061096186868686611031565b505050600260008190555050505050565b6000600160009054906101000a900473ffffffffffffffffffffffffffffffffffffffff16905090565b600080600360009054906101000a900473ffffffffffffffffffffffffffffffffffffffff1673ffffffffffffffffffffffffffffffffffffffff16636352211e846040518263ffffffff1660e01b81526004016109fa9190611b04565b60206040518083038186803b158015610a1257600080fd5b505afa158015610a26573d6000803e3d6000fd5b505050506040513d601f19601f82011682018060405250810190610a4a919061139d565b905080915050919050565b610a5e8261099c565b73ffffffffffffffffffffffffffffffffffffffff163373ffffffffffffffffffffffffffffffffffffffff161415610acc576040517f08c379a0000000000000000000000000000000000000000000000000000000008152600401610ac390611aa4565b60405180910390fd5b6006600083815260200190815260200160002054341015610b22576040517f08c379a0000000000000000000000000000000000000000000000000000000008152600401610b19906119c4565b60405180910390fd5b8060066000848152602001908152602001600020819055506000808573ffffffffffffffffffffffffffffffffffffffff1634604051610b6190611889565b60006040518083038185875af1925050503d8060008114610b9e576040519150601f19603f3d011682016040523d82523d6000602084013e610ba3565b606091505b509150915081610be8576040517f08c379a0000000000000000000000000000000000000000000000000000000008152600401610bdf90611ac4565b60405180910390fd5b600360009054906101000a900473ffffffffffffffffffffffffffffffffffffffff1673ffffffffffffffffffffffffffffffffffffffff1663367605ca863060016040518463ffffffff1660e01b8152600401610c4893929190611919565b600060405180830381600087803b158015610c6257600080fd5b505af1158015610c76573d6000803e3d6000fd5b50505050600360009054906101000a900473ffffffffffffffffffffffffffffffffffffffff1673ffffffffffffffffffffffffffffffffffffffff166342842e0e8787876040518463ffffffff1660e01b8152600401610cd9939291906118b9565b600060405180830381600087803b158015610cf357600080fd5b505af1158015610d07573d6000803e3d6000fd5b50505050505050505050565b600360009054906101000a900473ffffffffffffffffffffffffffffffffffffffff1681565b6000610d43610f63565b73ffffffffffffffffffffffffffffffffffffffff16610d61610972565b73ffffffffffffffffffffffffffffffffffffffff1614610db7576040517f08c379a0000000000000000000000000000000000000000000000000000000008152600401610dae90611a64565b60405180910390fd5b600360009054906101000a900473ffffffffffffffffffffffffffffffffffffffff1673ffffffffffffffffffffffffffffffffffffffff1663e985e9c583306040518363ffffffff1660e01b8152600401610e149291906118f0565b60206040518083038186803b158015610e2c57600080fd5b505afa158015610e40573d6000803e3d6000fd5b505050506040513d601f19601f82011682018060405250810190610e6491906114a4565b9050919050565b610e73610f63565b73ffffffffffffffffffffffffffffffffffffffff16610e91610972565b73ffffffffffffffffffffffffffffffffffffffff1614610ee7576040517f08c379a0000000000000000000000000000000000000000000000000000000008152600401610ede90611a64565b60405180910390fd5b600073ffffffffffffffffffffffffffffffffffffffff168173ffffffffffffffffffffffffffffffffffffffff161415610f57576040517f08c379a0000000000000000000000000000000000000000000000000000000008152600401610f4e90611a04565b60405180910390fd5b610f6081610f6b565b50565b600033905090565b6000600160009054906101000a900473ffffffffffffffffffffffffffffffffffffffff16905081600160006101000a81548173ffffffffffffffffffffffffffffffffffffffff021916908373ffffffffffffffffffffffffffffffffffffffff1602179055508173ffffffffffffffffffffffffffffffffffffffff168173ffffffffffffffffffffffffffffffffffffffff167f8be0079c531659141344cd1fd0a4f28419497f9722a3daafe3b4186f6b6457e060405160405180910390a35050565b6000600560008673ffffffffffffffffffffffffffffffffffffffff1673ffffffffffffffffffffffffffffffffffffffff16815260200190815260200160002060009054906101000a900460ff166110bf576040517f08c379a00000000000000000000000000000000000000000000000000000000081526004016110b690611ae4565b60405180910390fd5b600115156110cc8461057c565b1515141561110f576040517f08c379a000000000000000000000000000000000000000000000000000000000815260040161110690611a84565b60405180910390fd5b6000600560008773ffffffffffffffffffffffffffffffffffffffff1673ffffffffffffffffffffffffffffffffffffffff16815260200190815260200160002060006101000a81548160ff0219169083151502179055508160066000858152602001908152602001600020819055506000600360009054906101000a900473ffffffffffffffffffffffffffffffffffffffff1673ffffffffffffffffffffffffffffffffffffffff166308598df08787876040518463ffffffff1660e01b81526004016111e093929190611950565b602060405180830381600087803b1580156111fa57600080fd5b505af115801561120e573d6000803e3d6000fd5b505050506040513d601f19601f8201168201806040525081019061123291906114f6565b90508573ffffffffffffffffffffffffffffffffffffffff167f30385c845b448a36257a6a1716e6ad2e1bc2cbe333cde1e69fe849ad6511adfe8260405161127a9190611b04565b60405180910390a280915050949350505050565b60006112a161129c84611b50565b611b1f565b9050828152602081018484840111156112b957600080fd5b6112c4848285611c5b565b509392505050565b6000813590506112db81611cdd565b92915050565b6000815190506112f081611cdd565b92915050565b60008135905061130581611cf4565b92915050565b60008151905061131a81611d0b565b92915050565b600082601f83011261133157600080fd5b813561134184826020860161128e565b91505092915050565b60008135905061135981611d22565b92915050565b60008151905061136e81611d22565b92915050565b60006020828403121561138657600080fd5b6000611394848285016112cc565b91505092915050565b6000602082840312156113af57600080fd5b60006113bd848285016112e1565b91505092915050565b600080600080608085870312156113dc57600080fd5b60006113ea878288016112f6565b94505060206113fb878288016112cc565b935050604061140c8782880161134a565b925050606061141d8782880161134a565b91505092959194509250565b6000806000806080858703121561143f57600080fd5b600061144d878288016112cc565b945050602085013567ffffffffffffffff81111561146a57600080fd5b61147687828801611320565b93505060406114878782880161134a565b92505060606114988782880161134a565b91505092959194509250565b6000602082840312156114b657600080fd5b60006114c48482850161130b565b91505092915050565b6000602082840312156114df57600080fd5b60006114ed8482850161134a565b91505092915050565b60006020828403121561150857600080fd5b60006115168482850161135f565b91505092915050565b61152881611c01565b82525050565b61153781611ba7565b82525050565b61154681611bcb565b82525050565b61155581611c13565b82525050565b600061156682611b80565b6115708185611b96565b9350611580818560208601611c6a565b61158981611ccc565b840191505092915050565b60006115a1601383611b96565b91507f4d7573742073656e64206d6f7265204554482e000000000000000000000000006000830152602082019050919050565b60006115e1601583611b96565b91507f546f6b656e20616c7265616479206d696e7465642e00000000000000000000006000830152602082019050919050565b6000611621602683611b96565b91507f4f776e61626c653a206e6577206f776e657220697320746865207a65726f206160008301527f64647265737300000000000000000000000000000000000000000000000000006020830152604082019050919050565b6000611687600283611b96565b91507f4e6f0000000000000000000000000000000000000000000000000000000000006000830152602082019050919050565b60006116c7601f83611b96565b91507f4d7573742073656e6420302e303520455448206d696e74696e67206665652e006000830152602082019050919050565b6000611707602083611b96565b91507f4f776e61626c653a2063616c6c6572206973206e6f7420746865206f776e65726000830152602082019050919050565b6000611747603983611b96565b91507f546f6b656e20616c7265616479206d696e7465642c20706c656173652070757260008301527f63686173652066726f6d2063757272656e74206f776e65722e000000000000006020830152604082019050919050565b60006117ad601a83611b96565b91507f596f7520616c7265616479206f776e207468697320706c6f742e0000000000006000830152602082019050919050565b60006117ed600083611b8b565b9150600082019050919050565b6000611807601283611b96565b91507f436f756c64206e6f742073656e642045544800000000000000000000000000006000830152602082019050919050565b6000611847601583611b96565b91507f4d75737420706179206d696e74696e67206665652e00000000000000000000006000830152602082019050919050565b61188381611bf7565b82525050565b6000611894826117e0565b9150819050919050565b60006020820190506118b3600083018461152e565b92915050565b60006060820190506118ce600083018661151f565b6118db602083018561152e565b6118e8604083018461187a565b949350505050565b6000604082019050611905600083018561152e565b611912602083018461152e565b9392505050565b600060608201905061192e600083018661152e565b61193b602083018561152e565b611948604083018461153d565b949350505050565b6000606082019050611965600083018661152e565b8181036020830152611977818561155b565b9050611986604083018461187a565b949350505050565b60006020820190506119a3600083018461153d565b92915050565b60006020820190506119be600083018461154c565b92915050565b600060208201905081810360008301526119dd81611594565b9050919050565b600060208201905081810360008301526119fd816115d4565b9050919050565b60006020820190508181036000830152611a1d81611614565b9050919050565b60006020820190508181036000830152611a3d8161167a565b9050919050565b60006020820190508181036000830152611a5d816116ba565b9050919050565b60006020820190508181036000830152611a7d816116fa565b9050919050565b60006020820190508181036000830152611a9d8161173a565b9050919050565b60006020820190508181036000830152611abd816117a0565b9050919050565b60006020820190508181036000830152611add816117fa565b9050919050565b60006020820190508181036000830152611afd8161183a565b9050919050565b6000602082019050611b19600083018461187a565b92915050565b6000604051905081810181811067ffffffffffffffff82111715611b4657611b45611c9d565b5b8060405250919050565b600067ffffffffffffffff821115611b6b57611b6a611c9d565b5b601f19601f8301169050602081019050919050565b600081519050919050565b600081905092915050565b600082825260208201905092915050565b6000611bb282611bd7565b9050919050565b6000611bc482611bd7565b9050919050565b60008115159050919050565b600073ffffffffffffffffffffffffffffffffffffffff82169050919050565b6000819050919050565b6000611c0c82611c37565b9050919050565b6000611c1e82611c25565b9050919050565b6000611c3082611bd7565b9050919050565b6000611c4282611c49565b9050919050565b6000611c5482611bd7565b9050919050565b82818337600083830152505050565b60005b83811015611c88578082015181840152602081019050611c6d565b83811115611c97576000848401525b50505050565b7f4e487b7100000000000000000000000000000000000000000000000000000000600052604160045260246000fd5b6000601f19601f8301169050919050565b611ce681611ba7565b8114611cf157600080fd5b50565b611cfd81611bb9565b8114611d0857600080fd5b50565b611d1481611bcb565b8114611d1f57600080fd5b50565b611d2b81611bf7565b8114611d3657600080fd5b5056fea2646970667358221220012734aa0348497016df6707e5305899cd7b0993ed74f3b8e2dd5b4104fc292d64736f6c63430008000033",
  "immutableReferences": {},
  "source": "pragma solidity ^0.8.0;\r\n\r\nimport \"./ERC721Token.sol\";\r\nimport \"@openzeppelin/contracts/access/Ownable.sol\";\r\nimport \"@openzeppelin/contracts/utils/math/SafeMath.sol\";\r\n\r\ncontract ReentrancyGuard{\r\n  uint private _executing;\r\n  modifier reentrancyGuard(){\r\n    require(_executing!=1,\"No\");\r\n    _executing=1;\r\n    _;\r\n    _executing=2;\r\n  }\r\n}\r\n\r\ncontract ERC721Wrapper is ReentrancyGuard, Ownable {\r\n  using SafeMath for uint256;\r\n  uint256 private initPrice = 50000000000000000; // 0.05 ETH\r\n\r\n\r\n  ERC721Token public baseToken;\r\n  address private baseTokenAddress;\r\n\r\n  mapping(address => bool) private paidForToken;\r\n  mapping(uint256 => uint256) private tokenPrices;\r\n\r\n  event Minted(address indexed recipient, uint256 tokenID);\r\n\r\n  constructor(\r\n    address payable TokenAddress\r\n    )\r\n    {\r\n      baseToken = ERC721Token(TokenAddress);\r\n      baseTokenAddress = TokenAddress;\r\n    }\r\n\r\n    // Function to receive Ether. msg.data must be empty\r\n    receive() external payable {}\r\n\r\n    // Fallback function is called when msg.data is not empty\r\n    fallback() external payable {}\r\n\r\n    function checkExist(uint256 tokenID) public view returns(bool)\r\n    {\r\n      return baseToken.exists(tokenID);\r\n    }\r\n\r\n    function getTokenAddress() public onlyOwner view returns(address)\r\n    {\r\n      return(baseTokenAddress);\r\n    }\r\n\r\n    function getBalance() public onlyOwner view returns(uint256) {\r\n      return address(this).balance;\r\n    }\r\n\r\n    function withdrawFunds() public onlyOwner {\r\n      uint256 balance = getBalance();\r\n      address owner = owner();\r\n      payable(owner).transfer(balance);\r\n    }\r\n\r\n    function checkTokenPrice(uint256 tokenID) public view returns(uint256){\r\n      return tokenPrices[tokenID];\r\n    }\r\n\r\n    function sendFee(address minter, string memory uri, uint256 id, uint256 newPrice) public reentrancyGuard payable{\r\n      require(checkExist(id) != true, \"Token already minted.\");\r\n      require(msg.value >=  initPrice, \"Must send 0.05 ETH minting fee.\");\r\n      (bool sent, bytes memory data) = address(this).call{value:msg.value}(\"\");\r\n      require(sent, \"Could not send ETH\");\r\n      paidForToken[msg.sender] = true;\r\n      mintNewPlot(minter, uri, id, newPrice);\r\n    }\r\n\r\n    function mintNewPlot(address recipient, string memory tokenURI, uint256 tokenID, uint256 newPrice) private returns(uint256)\r\n    {\r\n      require(paidForToken[recipient], \"Must pay minting fee.\");\r\n      require(checkExist(tokenID) != true, \"Token already minted, please purchase from current owner.\");\r\n      //must pay fee for each mint\r\n      paidForToken[recipient] = false;\r\n      tokenPrices[tokenID] = newPrice;\r\n      uint256 _newTokenID = baseToken.mintNFT(recipient, tokenURI, tokenID);\r\n      emit Minted(recipient, _newTokenID);\r\n      return _newTokenID;\r\n\r\n    }\r\n\r\n    function checkOwner(uint256 tokenID) public view returns(address){\r\n      address owner = baseToken.ownerOf(tokenID);\r\n      return owner;\r\n    }\r\n\r\n\r\n    function checkOperator(address owner) public onlyOwner view returns(bool)\r\n    {\r\n      return(baseToken.isApprovedForAll(owner, address(this)));\r\n    }\r\n\r\n    function purchaseToken(address payable from, address to, uint256 tokenID, uint256 newPrice) public payable\r\n    {\r\n      require(msg.sender != checkOwner(tokenID), \"You already own this plot.\");\r\n      require(msg.value >= tokenPrices[tokenID], \"Must send more ETH.\");\r\n      tokenPrices[tokenID] = newPrice;\r\n      (bool sent, bytes memory data) = from.call{value:msg.value}(\"\");\r\n      require(sent, \"Could not send ETH\");\r\n      baseToken.setApprovalForAll(to, address(this), true);\r\n      baseToken.safeTransferFrom(from, to, tokenID);\r\n    }\r\n\r\n    function checkBalance(address owner) public view returns(uint256)\r\n    {\r\n      return baseToken.balanceOf(owner);\r\n    }\r\n\r\n\r\n\r\n\r\n\r\n}\r\n",
  "sourcePath": "C:/Users/kerpr/Desktop/NFT-Wrapper-Contract/contracts/ERC721Wrapper.sol",
  "compiler": {
    "name": "solc",
    "version": "0.8.0+commit.c7dfd78e.Emscripten.clang"
  },
  "schemaVersion": "3.4.1",
  "updatedAt": "2021-11-21T16:44:22.053Z",
  "devdoc": {
    "kind": "dev",
    "methods": {
      "owner()": {
        "details": "Returns the address of the current owner."
      },
      "renounceOwnership()": {
        "details": "Leaves the contract without owner. It will not be possible to call `onlyOwner` functions anymore. Can only be called by the current owner. NOTE: Renouncing ownership will leave the contract without an owner, thereby removing any functionality that is only available to the owner."
      },
      "transferOwnership(address)": {
        "details": "Transfers ownership of the contract to a new account (`newOwner`). Can only be called by the current owner."
      }
    },
    "version": 1
  },
  "userdoc": {
    "kind": "user",
    "methods": {},
    "version": 1
  }
}